:020000040000FA
:0600000002011A0220CDEE
:03002B000225A00B
:0300330002258221
:0300530002214344
:03006B0002255912
:10008300021F23E5C754F84401F5C7790122000094
:100093000080FB120086B90003020104E4791B7897
:1000A30002B800028004F709D8FCE4791D7802B88D
:1000B30000028004F709D8FCE490028178EC7918F7
:1000C3008002F0A3D8FCD9FA781A90014A7A01BACF
:1000D30000028007E493A3F608DAF97A6C7B1A909E
:1000E300014B78DB79018015E493A3AD82AE838A5B
:1000F300828B83F0A3AA82AB838D828E83D8E9D9C6
:10010300E775828E7583D2740312012C7582917503
:100113008300740012012C75D00075813F7518811E
:10012300751902759F00020096C09FF59FE473D076
:100133009F22D083D082C09FE493C0E0740193C018
:10014300E0740293F59F2201C903D5030B04050450
:10015300FF0000B4000028002800283075A000A08C
:1001630000A000A00000080008E001F0001000104B
:10017300001000100010001000500050005000103C
:10018300001000D0070000000000000F0001000570
:1001930000307507001000010081FF00000000FF20
:1001A300FFFF020202848F010000758F027C8F0122
:1001B3000000C61A02788F010000B802027C8F018A
:1001C3000000C71A02808F010000CE02FFFF01006A
:1001D300FF2002848F010000728F027C8F010000D8
:1001E300F51A028C8F0000000000027A8F030000D2
:1001F300FA0217005D0C5D0C5D0C5D0C5D0C5D0C73
:100203005D0C5D0C5D0C5D0C5D0C5D0C5D0C850E79
:10021300A30E7F0E01E803057710020AFFFFFF001C
:10022300FEFF1201355ABC031201356DBC031201E6
:10023300358EBC03120135F9BC031201353ABD03F7
:100243001201355BBD031201357CBD03120135BDBF
:10025300BD0312013555BE031201359DBE031201C4
:100263003540B00312013553B00312013584B00396
:10027300120135BEB00312013517B1031201355E09
:10028300B103120135A6B103120135D5B103120131
:100293003504B2031201353BB20312013582B203B6
:1002A3001201359BB203120135F0B2031201351E60
:1002B300B30312013558B303120135049A02120134
:1002C30035079B02120135349B02120135859B02CF
:1002D300120135A89B02120135BA9B02120135BDEA
:1002E3009B02120135FB9B021201356F9C02120126
:1002F30035DB9C02120135A39D02120135BF9D021D
:10030300120135F69D02120135309E02120135C7E6
:100313009E02120135199F021201354A9F021201F2
:10032300354D9F021201357E9F021201358B9F02CC
:10033300120135A39F021201350DA00212013510DF
:10034300A0021201351DA00212013520A0021201E4
:100353003577A00212013588A002120135C1A0022F
:10036300120135C4A002120135F8A002120135FBB7
:10037300A0021201354FA10212013598A102120108
:1003830035A8A102120135DBA102120135E8A10251
:10039300120135EBA10212013553A20212013555A8
:1003A300A302120135F9A30212013562A40212015C
:1003B30035A0A402120135D2B802120135CAB9021E
:1003C300120135FEB90212013594BA02120135DF6A
:1003D300BA0212013543BB02120135CDBB02120131
:1003E3003586BC02120135A8BF0212013525C102B0
:1003F30012013548C102120135599C03120135FE21
:100403009D031201351E9E031201353F9F03120106
:1004130035929F031201359FA003120135C7A00334
:10042300120135F4A0031201352CA1031201358A00
:10043300A103120135D6A1031201353DA203120116
:10044300357DA203120135BAA203120135E8A203D6
:1004530012013592A3031201359CA303120135A99E
:10046300A303120135DCA303120135E8A303120130
:100473003500A4031201350AA4031201351ECF036C
:100483001201352CCF0312013544CF031201355C21
:10049300CF0312013573CF03120135FFE0011201BF
:1004A30035A9E10112013525E20112013543E301CA
:1004B3001201357FE3011201351AE401120135FE01
:1004C300E401120135C1E50112013539E6011201DA
:1004D30035C7E70112013538E801120135F2E801A9
:1004E300120135E4E90112013524EA01120135D87C
:1004F300EA011201350AEB0112013500ED01120187
:100503003542ED0112013560ED01120135E5ED01D2
:10051300120135A9EE01120135C8F001120135852A
:10052300A8031201359BA803120135B9A8031201D0
:1005330035CAA903120135D4A903120135FFAA0351
:10054300120135F6AB0312013563AC031201350A10
:100553008503120135AE8503120135E585031201CA
:10056300353C86031201355188031201358F8F0103
:100573001201354090011201355C900112013525BD
:1005830091011201352F9101120135499101120197
:10059300355491011201352A920112013507930155
:1005A300120135649301120135F49301120135AB45
:1005B3009401120135B99701120135A8990112016D
:1005C300355A9A01120135239B01120135689E01A8
:1005D300120135129F011201353BA001120135F7BB
:1005E300A10112013597A201120135E5A201120101
:1005F3003524A301120135F7A3011201352BA40100
:10060300120135B8A401120135CACE0112013556C3
:10061300CF01120135BAD001120135C6D001120142
:100623003501D10112013570D10112013579D201A1
:1006330012013582D30112013549D401120135A6C5
:10064300D501120135C4D501120135E1D5011201DD
:1006530035ACD601120135D4D6011201359ED9012C
:10066300120135A3D901120135BCDB011201350A90
:10067300DC011201357ADC01120135B8DC0112010B
:100683003594DD0112013554DE01120135A0DE017E
:10069300120135A3DE01120135E7DE011201352F08
:1006A300DF011201356EDF0112013590DF01120106
:1006B30035C4DF0112013527E00112013500800343
:1006C3001201350980031201351780031201356ABF
:1006D3008003120135898003120135CE8003120194
:1006E30035128203120135AD8203120135F1820303
:1006F3001201351B83031201358A8303120135D09E
:100703008303120135478403120135F88403120170
:1007130035D82500120135E8250012013589260058
:10072300120135E52600120135A22700120135BE5C
:100733002800120135F028001201351F290012018B
:1007430035CC2A00120135432D00120135B32F0099
:10075300120135A530001201359E3100120135A575
:100763003300120135993600120135C837001201E2
:1007730035CC3900120135DC3A001201356B3C00EF
:100783001201355C3D00120135AA3D0012013519F5
:100793003E001201353D3E001201358E3E0012012E
:1007A300352F4300120135304400120135914400C6
:1007B300120135BC440012013582450012013598FF
:1007C300A403120135A2A403120135E7A403120105
:1007D30035FBA4031201358BA503120135B3A50321
:1007E300120135EEA50312013517A6031201354B8D
:1007F300A60312013560A603120135CBA60312012D
:1008030035ECA60312013500A70312013515A70322
:100813001201354FA703120135B4A703120135F7AF
:10082300A70312013521A8031201355DA8031201A4
:10083300351FCB03120135D27400120135B5750093
:100843001201353076001201356B7600120135BC8A
:1008530077001201354578001201355D7A001201E7
:1008630035EF7C00120135A17D00120135C07E00F9
:10087300120135197F0012013508F5021201354BBB
:10088300F502120135CFF502120135A2F60212016B
:100893003579F902120135BCB90312013569BA037E
:1008A30012013576BB03120135B5BB031201350FB7
:1008B300BC0312013571C403120135D4C403120100
:1008C3003571C5031201359FC503120135C0C50338
:1008D300120135FBC5031201351BC6031201350096
:1008E3008A031201358C8A031201354B8B031201E3
:1008F30035638C031201357D8E031201351EAF0261
:1009030012013543AF0212013517B00212013584CB
:10091300B002120135DAB00212013576B1021201CA
:1009230035AAB20212013585B302120135E4B302CE
:10093300120135B5B40212013541B5021201354435
:10094300B5021201358EB50212013500B60212014D
:1009530035ABB602120135CBB60212013513B7021D
:100963001201352FB702120135A9B702120135B7AB
:10097300B70212013546B802120135AFB8021201AF
:10098300354B9303120135D09303120135129403AF
:10099300120135F69403120135639503120135A74D
:1009A3009503120135EB95031201351896031201D5
:1009B30035409603120135789603120135B6960336
:1009C300120135DD9603120135579703120135A144
:1009D3009703120135795E0012013546600012015A
:1009E300352F6200120135836200120135AE6200B9
:1009F3001201355D6300120135A16300120135E573
:100A03006300120135F863001201353964001201E5
:100A130035666400120135B46400120135FA6400CE
:100A23001201352565001201357865001201350480
:100A33006600120135ED6600120135D76700120119
:100A430035D56900120135E46E001201353D6F00A2
:100A5300120135796F001201355F710012013518EB
:100A630073001201356E73001201359E740012017A
:100A730035AF740012013516B70312013588B70379
:100A8300120135DEB70312013522B80312013542D4
:100A9300B8031201358FB803120135D7B803120119
:100AA300352AB9031201357BB903120135EE45002E
:100AB300120135374600120135644600120135969E
:100AC3004600120135A24600120135AE460012015E
:100AD30035C54600120135A04700120135FE470017
:100AE300120135334800120135644900120135B152
:100AF3004900120135FF49001201355D4A00120118
:100B030035464B00120135C24C001201358B4D00A6
:100B13001201359B4D00120135C54D00120135C838
:100B23004D001201359F4E00120135504F00120146
:100B330035F54F001201355350001201359A50001C
:100B43001201351E5100120135B9510012013564ED
:100B53005200120135105300120135825300120165
:100B630035C953001201352D54001201355C540070
:100B7300120135EF540012013501570012013545BA
:100B830057001201358A57001201350C5800120123
:100B930035965800120135AB5900120135315A0010
:100BA300120135565A00120135AD5A00120135C2F1
:100BB3005A001201350A5B001201357D5B001201F8
:100BC30035C25B00120135C75C00120135785D0048
:100BD300120135D45D00120135305E001201354932
:100BE3005E001201356BC202120135BFC20212014F
:100BF30035CBC20212013595C302120135C2C302BD
:100C0300120135F0C3021201355CC40212013592A0
:100C1300C402120135CBC402120135E3C40212012E
:100C23003538C50212013551C50212013596C50288
:100C3300120135A9C502120135C3C502120135D906
:100C4300C502120135F7C60212013522C80212018C
:100C5300350CC902120135FDC902120135EE7F00C0
:100C63001201352BFA02120135AEFD02120135FBDA
:100C7300FE02120135888D021201355B90021201CA
:100C830035619002120135F1920212013554950239
:100C9300120135B48E031201354B8F03120135094E
:100CA30090031201353390031201350D92031201A3
:100CB3003512930312013506BB0112013538BB010E
:100CC3001201351DC5011201356EC60112013577BA
:100CD300C701120135F6C801120135DDC901120140
:100CE300352CCA0112013546CA011201358CCA01DD
:100CF300120135D3CA01120135DCCA01120135884C
:100D0300CB0112013561CC01120135A8CC011201CE
:100D13003510CD0112013552CD0112013580CD01BF
:100D2300120135BDCD011201356DAC03120135E35E
:100D3300AC03120135F9AC0312013589AD0312017D
:100D430035C6AD0312013500AE031201353AAE03C9
:100D5300120135ADAE03120135EEAE03120135F7C4
:100D6300AE0312013503AF0312013522AF031201A3
:100D7300354CAF0312013561AF0312013589AF035F
:100D8300120135EBAF0312013512B003120135170F
:100D9300E3021201352AE30212013544E302120190
:100DA3003571E302120135B7E302120135EAE302BA
:100DB30012013528E4021201358DE402120135A235
:100DC300E402120135B9E402120135C7E40212014B
:100DD30035D6E402120135EBE40212013500E502D7
:100DE3001201350BE50212013517E5021201352414
:100DF300E50212013537E50212013542E50212011F
:100E03003567E5021201350BE60212013520E602D1
:100E130012013535E6021201354FE6021201356C37
:100E2300E60212013589E60212013594E602120147
:100E33003540E70212013521E80212013546E80286
:100E430012013551E80212013566E8021201357AC2
:100E5300E802120135DBE802120135E1E802120172
:100E630035E7E802120135EDE80212013505E90222
:100E730012013538E902120135C6A402120135E820
:100E8300A402120135B0A5021201356AA8021201AB
:100E93003580A902120135A1AA021201357BAB02EA
:100EA3001201352AAC021201350580021201359C6C
:100EB30080021201353481021201352482021201AB
:100EC300355B82021201356E8202120135DC820229
:100ED3001201357784021201359E840212013540D6
:100EE30085021201357585021201358685021201CC
:100EF30035FF85021201352086021201353886023C
:100F0300120135908702120135998902120135E9E0
:100F13008B02120135EC8C021201353B8D0212015A
:100F230035D5F001120135D2F101120135BDF201BF
:100F3300120135C7F201120135E9F201120135F54B
:100F4300F20112013547F40112013576F401120161
:100F530035A6F501120135E8F50112013514F70143
:100F6300120135EAF7011201353CF8011201359BF4
:100F7300F801120135D2F8011201350DF901120100
:100F830035A8FC01120135C1FC0112013543FD01F5
:100F930012013551FD01120135A6FD01120135B4CF
:100FA300FD0112013521FE0112013593FE011201EB
:100FB30035D9FE0112013529C6031201354EC60388
:100FC300120135BFC603120135B7CB02120135C07A
:100FD300CB02120135C9CB02120135FACC02120140
:100FE3003519CF021201354FCF0212013589CF02D5
:100FF300120135BFCF02120135F9CF021201352D8F
:10100300D00212013559D002120135A2D0021201C9
:1010130035DCD00212013524D1021201357AD10216
:10102300120135AFD1021201350AD2021201354441
:10103300D20212013595D202120135CBD20212012E
:101043003505D30212013528D302120135DDD00351
:1010530012013509D10312013564D1031201356E32
:10106300D1031201357ED103120135BAE90212010F
:1010730035F9E90212013582EA0212013597EA02D3
:10108300120135E2EA0212013516EB02120135555F
:10109300EB0212013564EB0212013519EC02120165
:1010A3003572EC02120135C1EC021201351AED0260
:1010B30012013527EE0212013520EF021201355DD0
:1010C300EF0212013562FF01120135AEA5011201D3
:1010D300352EA801120135A2A901120135FFA9017C
:1010E300120135A8AA01120135A5AB011201352D54
:1010F300AC01120135B2AC01120135D7AC011201BA
:101103003578AF01120135E9AF01120135D5B001D0
:101113001201350FB1011201354FB101120135EF43
:10112300B20112013520B30112013575B301120169
:1011330035C2B30112013533B40112013557B4017D
:1011430012013571B40112013587B50112013597CA
:10115300B50112013528B70112013548B701120153
:10116300357EB701120135EEB80112013567B901B9
:10117300120135A6B901120135D8BA01120135A4FD
:10118300C20312013508C303120135B7C3031201A9
:1011930035D6C3031201352AC40312013546FF02B3
:1011A30012013557FF02120135E6D203120135252C
:1011B300D3031201352FD30312013503D0031201D8
:1011C3003513D00312013525D003120135D7D003CF
:1011D30012013533CC03120135B7CC031201351D8F
:1011E300CD03120135DFC70312013508C80312010D
:1011F300356EC8031201358DC803120135E0C803EB
:1012030012013539C90312013574C9031201357747
:10121300C903120135E0FF01120135F0FF0112018C
:1012230035F3FF01120135F87F00120135CAC003FF
:1012330012013540C203120135A1C2031201352D3B
:10124300CE0312013556CE031201357FCE031201B0
:101253003597CE03120135D9CE0312013595EF022E
:101263001201359FEF02120135DFEF02120135281B
:10127300F00212013562F002120135B8F0021201D8
:1012830035D7F002120135E0F00212013531F102D7
:101293001201355AF1021201356FF102120135DFE5
:1012A300F1021201356DF202120135B1F20212019F
:1012B30035D9F20212013558F3021201359BF302BC
:1012C300120135D8F302120135EAF302120135098E
:1012D300F40212013512F402120135DCF402120198
:1012E3003581C903120135D2C9031201355BCA0323
:1012F300120135C1CA03120135C0B303120135EA25
:10130300B303120135DFB40312013504B50312012F
:1013130035A5B5031201352BB60312013536CD03BE
:10132300120135C8BE03120135FEBE031201353763
:10133300BF0312013590C00312013588D103120196
:10134300359ED103120135A8D103120135FED10315
:101353001201352FD203120135B6D30212013573B0
:10136300D402120135AED402120135D6D4021201D1
:101373003538D50212013584D502120135EFD50275
:101383001201356BD60212013567D702120135EE11
:10139300D80212013571D902120135D5D9021201D1
:1013A30035ECD902120135E2DA021201352EDB02E5
:1013B300120135E19703120135F69703120135A6A1
:1013C3009803120135E69803120135FF98031201C1
:1013D300353299031201357F9903120135B399030D
:1013E300120135F59903120135F39B031201358C74
:1013F300DB021201357FDC02120135B5DD02120179
:1014030035C0DF02120135C3DF0212013558E10294
:101413001201355BE1021201355EE10212013598DA
:10142300E202120135C27F00120135C2FF01E066FC
:10143300701008A3E066700A08A3E066700408A3AE
:10144300E06622C3E7960809E7960809E7960809C4
:10145300E79622C3E09608A3E09608A3E09608A3C4
:10146300E09622C008C3E096F50808A3E096420878
:1014730008A3E096420808A3E09645087001D3D07C
:101483000822080808EAC0E0EBC0E086F0E7A4FA07
:10149300180986F0E7A42AFA180986F0E7A42AFABD
:1014A300180986F0E7A42AFA1986F0E7A4FBE5F009
:1014B3002AFA190886F0E7A42BFBE5F03AFA190893
:1014C30086F0E7A42BFBE5F03AFA18180986F0E753
:1014D300A4C5F02BFBE43AFA1908E7C5F0C6A42625
:1014E300F6E5F03BFBE43AFA1886F0E7A4F6E5F0FC
:1014F3000826F6E43B08F6E43A08F6D0E0FBD0E031
:10150300FA22E4CFC0E0E4CEC0E0E4CDC0E0E4CC16
:10151300C0E075F020E626F608E633F608E633F673
:1015230008E633F6181818EC33FCED33FDEE33FE02
:10153300EF33FFC3EC9709ED9709EE9709EF97197E
:101543001919400FFFEC97FC09ED97FD09EE97FE83
:10155300191906D5F0BFECF709EDF709EEF709EF16
:10156300F7191919D0E0FCD0E0FDD0E0FED0E0FF80
:10157300226016080808C6C313C618C613C618C6C1
:1015830013C618C613C6D5E0EA2270090808082254
:101593006016181818C6C333C608C633C608C63340
:1015A300C608C633C6D5E0EA22E627F60809E637B9
:1015B300F60809E637F60809E637F622E026F608C4
:1015C300A3E036F608A3E036F608A3E036F622E0F9
:1015D30026F008A3E036F008A3E036F008A3E036CF
:1015E300F022C3E697F60809E697F60809E697F6A8
:1015F3000809E697F622C3E096F008A3E096F00800
:10160300A3E096F008A3E096F022E657F60809E671
:1016130057F60809E657F60809E657F622E056F6A4
:1016230008A3E056F608A3E056F608A3E056F62210
:10163300E056F008A3E056F008A3E056F008A3E054
:1016430056F022E066F608A3E066F608A3E066F625
:1016530008A3E066F622E0F608A3E0F608A3E0F6A6
:1016630008A3E0F622E6F008A3E6F008A3E6F008F4
:10167300A3E6F022E0FAA3E0FBA3E0FCA3E0FD2253
:10168300EAF0A3EBF0A3ECF0A3EDF022E0F8A3E083
:10169300F9A3E0FAA3E0FB22E8F0A3E9F0A3EAF060
:1016A300A3EBF022CAC0E0E6F0A308DAFAD0E0FA2E
:1016B30022CAC0E0E0A3C582CCC582C583CDC58361
:1016C300F0A3C582CCC582C583CDC583DAE6D0E05D
:1016D300CA22C3E498F8E499F91217168026C3E4E2
:1016E3009AFAE49BFBE920E7E9121716E498F8E479
:1016F30099F922C3E498F8E499F9121716E498F8D3
:10170300E499F9C3E49AFAE49BFB22EB20E7CFE9DF
:1017130020E7E0B90010BB0008E88AF084F8AAF0DB
:1017230022E4FBC8FA22EB70227B10C833C8C9330A
:10173300C9335007C39AC3DBF280069A50012ADBF0
:10174300EAC833F4C8C933F4C9FA2275F008E4C807
:1017530033C8C933C933C99AC99B5004C92AC93B81
:10176300D5F0ECFBC833F4C8E4C9FA22600D08C60F
:10177300A2E713C618C613C6D5E0F322600C08C649
:10178300C313C618C613C6D5E0F422700422600D35
:1017930018C6C333C608C633C6D5E0F418222518C5
:1017A30010AF08F518400C15198008F518400215FC
:1017B30019D2AF2200C0D0251810AF08F518500C6D
:1017C30005198008F51850020519D2AFD0D022258B
:1017D30018F58210AF08F518400C15198008F51894
:1017E30040021519D2AF851983222518F582E435F5
:1017F30019F583222518F8E43519F9222518FAE496
:101803003519FB222518FCE43519FD22E47325184C
:10181300C582C0E0E51934FFC583C0E0E518C39570
:101823008224F810AF088583198582188008858380
:1018330019858218D2AFCEF0A3E520F0A37808E68D
:1018430008F0A3DEFAEFF0A3E58124FAF8E608F046
:10185300A3E608F0A3E608F0A30808E608F0A3E669
:1018630008F0A315811581D0E0FED0E0F8158115AD
:10187300811581E8C0E0EEC0E0222518C582C0E0F2
:10188300E51934FFC583C0E0E518C3958224F91038
:10189300AF08858319858218800885831985821886
:1018A300D2AFCEF0A3E520F0A37808E608F0A3DEDC
:1018B300FAEFF0A3E58124FBF8E608F0A3E608F0CD
:1018C300A30808E608F0A3E608F0A315811581D064
:1018D300E0FED0E0F815811581E8C0E0EEC0E0221B
:1018E300851983851882E0A3FEE0A3F5207808E03C
:1018F300A3F608DFFAE0A3FFE0A3C0E0E0A3C0E0A3
:10190300E0A3C0E0E0A3C0E0E0A3C0E010AF08851F
:1019130082188583198008858218858319D2AFD0F0
:1019230083D082020132851983851882E0A3FEE009
:10193300A3F5207808E0A3F608DFFAE0A3FFE0A30D
:10194300C0E0E0A3C0E0E0A3C0E0E0A3C0E010AFCC
:10195300088582188583198008858218858319D2A2
:10196300AFD083D08222C0D02518C582C0E0E5194C
:1019730034FFC583C0E0E518C3958224F310AF0894
:101983008583198582188008858319858218D2AFCB
:10199300C8F0A3E9F0A3EAF0A3EBF0A37908E70901
:1019A300F0A3D8FAECF0A3EDF0A3EEF0A3EFF0A3CD
:1019B300D0E0F0A3D0E0F0A3D0E0F0A3E520F0A3C3
:1019C300E5F0F0A322851983851882E0C0E0A3E047
:1019D300F9A3E0FAA3E0FBA37808E0F608A3DFFA93
:1019E300E0FCA3E0FDA3E0FEA3E0FFA3E0C0E0A3CF
:1019F300E0C0E0A3E0F5D0A3E0F520A3E0A3F5F079
:101A030010AF08858319858218800885831985821C
:101A130018D2AFD082D083D0E0F8D0E03274048003
:101A230006740280027401C0E0F4041217D2D0E0FD
:101A33001216A7227404800474028000CCC0E0ED67
:101A4300C0E0E518C39CCCAD1950011D10AF068C46
:101A5300188D1980068C188D19D2AF1216B4D0E0E8
:101A6300FDD0E0FC22D083D082E9C0E0E493A3C39D
:101A730086F0C5F095F0F908E493A386F0C5F095D8
:101A8300F0700BE493A3C3994005E9048002A3E437
:101A930075F002A42582F582E5F03583F583D0E065
:101AA300F9E493A3C0E0E493C0E022D083D082ECB6
:101AB300C0E0EDC0E0E493A3FCE493A3FDED4C6030
:101AC3000D121AFAEC24FFFCED34FFFD80EFE493D2
:101AD300A3FCE493A3FDED4C600D121B39EC24FF32
:101AE300FCED34FFFD80EFD0E0FDD0E0FCE493A3F8
:101AF300C0E0E493C0E022C0E0C3E493960874011D
:101B0300939618400FE4936670080874019366185F
:101B130070007019A3A3C3E49396087401939618F5
:101B2300A3A3400DD0E0D0E0D0E0021AEAA3A3A320
:101B3300A3A3A3D0E022C0E0C0F088F0E4936670D2
:101B4300080874019366187000A8F0A3A3700BD063
:101B5300F0D0E0D0E0D0E0021AEAA3A3D0F0D0E0C6
:101B63002274F612187DEAFEEBFF8C088D09EE2431
:101B730034F8E43FF9E8FCE9FD121C96E0FAEE24A0
:101B830037F582E43FF583E0F88508F0A4C885F0D3
:101B93000A8509F0A4250AF9EA28F8E439F97A252F
:101BA3007B00121716EA8C828D83F0FA13131354F9
:101BB3001FF8EE28F8E43FF9E8245DF582E439F5EF
:101BC30083E0C0E074075AF8D0E0B800028004C391
:101BD30013D8FCA2E05003EA8020EE2436F582E419
:101BE3003FF583E0F5F0EA84A8F0EE28F8E43FF946
:101BF300E82438F582E439F583E0F97F03021929F3
:101C030074F512187DEAFEEBFFEE2434F582E43F0F
:101C1300F583E0C0E0121C96D0E0F08E828F83A3A0
:101C2300A3A3A3A3E0FAA3E0FB8E828F83A3A3A3C2
:101C3300A3A3A3A3E0C39AF508A3E09BF509EE24AD
:101C43007FF8E43FF9880A890B8882F583E0640111
:101C5300702CEE2480F582E43FF583EA2401F8E456
:101C63003BF9E0687003A3E06970137CC07D06EE66
:101C7300FAEFFB120B6D850A82850B83E4F0AC0847
:101C8300AD09EEFAEFFB121B64E9F912254B7F0451
:101C9300021929EE2435F582E43FF5832274ED120F
:101CA300187D900369E064086005E06407702C9078
:101CB30061C8E06026900397E0F874FF68601CE851
:101CC30075F00DA4C8AAF02AF9749928FE74033993
:101CD300FF8E828F83A3A3A3E070057900021E39D0
:101CE300EE2468F50EE43FF50F906060E0850E8208
:101CF300850F83F07510FC751106750800750900D2
:101D0300E5D914F50AE5D95403F50B601FEE2483D6
:101D1300F50CE43FF50D7403650B6059E50A601794
:101D2300EE2467F582E43FF583E0700B793DEEFA2C
:101D3300EFFB120B9D80A49006F7E06401602385FE
:101D43000C82850D83E060047A0480027A00E50A40
:101D5300C39AFA95E0FB1209E78A088B09EA450959
:101D63007006120E5B021CDE850C82850D83E0700B
:101D7300048A108B117A008014E5D9C0E0EAF8E5F3
:101D83001028F582E43511F583D0E0F00AEAC39513
:101D93000A40E6850C82850D83E0602874FC250AE1
:101DA300F50A7810121A24AC0AA90BEEFAEFFB120B
:101DB3000C5774021217B7E9700AAA08AB0912127A
:101DC300E7021D2F7403650B6054850A0C750D0023
:101DD300780C121A24AC10AD11AA08AB09120C1B13
:101DE30074021217B7850E82850F83E0F87480683A
:101DF3007005750C7F8002880CE50CF50D780D12CB
:101E03001A28780B121A28A90AAC08AD099003976F
:101E1300E0FA7B0012083174021217B780139003A3
:101E230069E06408700BAC10AD11EEFAEFFB120C15
:101E330087120E6779017F0C02192974F312187D3A
:101E430074FC1217A1EAFEEBFF8909A2AFE433F594
:101E530008C2AFEE2463F50AE43FF50B8010AA0A2B
:101E6300AB0B120BD31212E79006C7E004F0850AFE
:101E730082850B83E0F8A3E0F9E849602DE82402AA
:101E8300FAE439FBEA2402F50CE43BF50D780C1275
:101E93001A248A828B83E0FCA3E0F9EEFAEFFB12AB
:101EA3000BC774021217B7E960B49006C7E0604D20
:101EB3009006C8E0F89006C7E0C398500C7402651A
:101EC30009703A9006C9E060348E828F83A3A3A37E
:101ED300A3E0851882851983121F1074021217ED6F
:101EE300E8121F109006C6E028F07402121807AA21
:101EF30018AB19790112088B9006C7E4F0E508A224
:101F0300E092AF74041217B77F06021929F0A3E415
:101F1300F09006C7E0F8220000851B87851CC622C7
:101F2300C0E074EB121969A2AFE433F508C2AF75D0
:101F33009B00906182E0A2E05030E591A2E0502A3C
:101F43007591FE7401651B70211220B6120D71127A
:101F530020A4121A3712248774041217B7E96401F4
:101F630070057901120DBF121CA0906182E0A2E5F9
:101F7300505DE591A2E550577591DF900369E064E8
:101F8300076005E06408702F1220B67401651B70AA
:101F93003E120D711220A4121A37122487740412F0
:101FA30017B7E9640170057901120DBF7901EEFAE3
:101FB300EFFB121E3E8018E0640D701390038BE05C
:101FC30004F064287002E4F07A00E0F9120E6D90D8
:101FD3006182E0A2E64003022079E591A2E6400394
:101FE3000220797591BF900369E064057008120DB2
:101FF30059120D658003120D5F751B00120DDDE98B
:1020030090036AF07900120DBF120AD17A017B00A6
:10201300900368E0F91212B7907803E064427056B7
:102023009006FBE014F0704EC2AF12203000781E11
:10203300D0E0F618D0E0F6E59F5407F87005750D6B
:10204300FF8003750D7FC4C0E0781DE6F50A08E63E
:10205300550DF50B740B780A12177FD0E0250AF89B
:10206300906270E0A2E740F8E8C333906272F090A8
:102073006270E0D2E0F0906181E0A2E35009E5E90B
:10208300A2E3500375E9F7A3E0A2E75009E591A2A3
:10209300E7500375917FE508A2E092AF7F0802192C
:1020A300C88E828F83E0F8A3E0C82416F582E43853
:1020B300F58322900397E0F875F00DA4C8AAF02ADF
:1020C300F9749928FE740339FF22C0E0C0D0C0829E
:1020D300C083906183E0A2E05009E5BFA2E0500312
:1020E30075BFFEE0A2E15009E5BFA2E1500375BF51
:1020F300FDE0A2E25009E5BFA2E2500375BFFBE099
:10210300A2E35009E5BFA2E3500375BFF7E0A2E4E1
:102113005009E5BFA2E4500375BFEFE0A2E5500903
:10212300E5BFA2E5500375BFDFE0A2E65009E5BFB6
:10213300A2E6500375BFBFD083D082D0D0D0E032A7
:10214300C0E074F2121969E5A7A2E4500FE5A1A259
:10215300E4500953A7EF75A1EF122197E5A7A2E574
:10216300500CE5A1A2E5500653A7DF75A1DFE5A753
:10217300A2E15009E5A1A2E1500375A1FDE5A7A2E3
:10218300E2500CE5A1A2E2500653A7FB75A1FB7F29
:10219300010219C874F812187D751B01900369E0D8
:1021A300640670077A007B00120D41A2AFE433FE90
:1021B300D2AF90036FE0640170187A207B00900324
:1021C30068E0F91213D77A207B00900368E0F912D4
:1021D30012BD906182E0D2E6F09006F8E0602185BE
:1021E300C61C801690036EE064017008E5C654F8BF
:1021F3004405F5C653BEFC121F1C7401651B60E445
:10220300EEA2E092AF7F0102192974E912187D74DE
:10221300FA1217A1EAFEEBFF8C088D09120D83EA6F
:10222300F8EBF9ECFAEDFB8E828F8312169B900389
:1022330069E024F7C3940550067510010223441284
:102243000CE18A0A8B0BEA450B7003022341120D42
:10225300778A0C8B0D120D77EA650C7003EB650D15
:1022630060ECEEFCEFFDAA18AB19120D7D850A8216
:10227300850B83A3A3780C121659908EE6780C1263
:1022830016208518828519837814121659908EE6C4
:102293007814121620780C7914121446501F780CF7
:1022A30079141215E5908F1A780C1214664047853D
:1022B3000C10850D11850E12850F138045908F1A12
:1022C3008514108515118516128517137810790C4E
:1022D3001215E57810121466501C75100075110064
:1022E300751200751301781079141215E5781079B9
:1022F3000C1215AC800C7510017511007512007568
:1023030013007409781012158D908F6A780C1216C9
:10231300597810790C121505900369E06408600A76
:10232300E064066005E064057020908F1E7810124B
:1023330014665016908F2278101215BF800C7510FA
:1023430000751100751200751300850882850983D5
:10235300781012166874061217B77F1002192974C1
:10236300F712187D120D959006F6E0640170109037
:102373006245E4F0A3F053F4F343FE0C5390F312DD
:102383000D2FE5C654B84441F5C6E59E5447644154
:1023930070F8906185740FF09006F4E0F47002A376
:1023A300E0602C7508017509009006F4E0780812C6
:1023B300178EE508F4FAA3E0600814600A14600CB1
:1023C300800DEA52808008EA52908003EA52A07995
:1023D300007F0202192974F712187DE9FEEAFF74DF
:1023E300016E700C7A807B00900368E0F91212B7DB
:1023F3009025D0E493F46008E493F9120AB38009BA
:1024030053C6B8E59E544770FA120D359006F6E0B0
:1024130064017003120AE99006F4E0F47002A3E089
:10242300602B7508017509009006F4E0780812170F
:102433008EE508FAA3E0600814600A14600C800DAE
:10244300EA42808008EA42908003EA42A0120CE14B
:102453008A088B09A808A909E8496016E5E170FC18
:10246300E82414F582E439F583E0F874FF68600228
:1024730088E174016F700A7A01900368E0F912131E
:10248300470223D474F112187D8A088B098C0A8DB4
:102493000B908EE67808121620740F1217ED780C45
:1024A300121659908EE6780C1216207808790C12C1
:1024B3001446908F1A50107808790C1215E5780895
:1024C3001214664014800E780C79081215E5780C06
:1024D30012146650047901800279007F08021929D9
:1024E30074ED12187D8A088B098C0A8D0B908EE689
:1024F300780812162074131217ED780C12165990DF
:102503008EE6780C121620780C79081214464011C6
:102513007808790C1215E5AA08AB09AC0AAD0B8053
:10252300227510007511007512007513017810796A
:102533000C1215E5781079081215ACAA10AB11AC82
:1025430012AD137F0C021929C082C083E990600089
:10255300F0D083D08222C0E074F2121969A2AFE4F2
:1025630033FED2AFE589A2E150031212037589004D
:10257300C2C5751A00EEA2E092AF7F010219C8C06E
:10258300E074F2121969A2AFE433FED2AFE58BA275
:10259300E05003121203758B00C2E880D5C0E0C07F
:1025A300D0E8C0E0E9C0E0A9A8D2AFC2C7751A005D
:1025B300E9A2E7E433F8E9A2E792AFD0E0F9D0E08B
:0C25C300F8D0D0D0E032C2AF02000022FD
:1025D000FFFFFFFFFFFFFFFFC082C083E9901AF4F7
:1025E000F0D083D08202013274F6121811E9900201
:1025F000DCF090033BE0F5087509007402780812DE
:10260000178EAA08AB0912132F9002DD122F9B9090
:1026100002DD123388606F90033BE075F003A4FA8B
:10262000ABF012132F9002FA122F9B9002FA123382
:1026300088700B9002DD12335912133580489002D6
:10264000FA1242ED7AFF7BFF12117F7A0080198A1D
:10265000087509007402780812178E123D9574FFF0
:1026600012279BE4F0A3F00A90033BE0F8EAC3983A
:1026700040DD79051207299002DCE0F91206157A8F
:10268000B37B07120987023E3874F41218118A08C6
:102690008B09EB548060479002DCE0F912129F8AAC
:1026A0000A8B0BAE0AAF0BEE4F602A8E828F83E04F
:1026B00064B0701A12073BE960148E828F83A3A363
:1026C000A3A3E0F9EE2405FAE43FFB12070BEEFAB0
:1026D000EFFB12128DAA08E5096480FB80047A00E2
:1026E0007B000228EB74F212181174FB1217A1EA96
:1026F000FEEBFFEE4F604574031217EDEEF0A3EF13
:10270000F0851882851983ECF0A3EDF0740212179E
:10271000EDE9F0AA18AB1912060FE9F50870757407
:10272000131217EDE0F50AA3E0F50BE50A450B607F
:10273000638E828F83122D24EE4F70057508028000
:10274000537A067B0012132F8A0C8B0DA80CA90D4F
:10275000E8497005750813803B88828983E4122755
:102760009BEEF0A3EF1228B7E50AF0A3E50BF0907B
:1027700002E01228B09002E06017E0FCA3E08003C2
:10278000EAFCEBFD8C828D831228B070F38C828D75
:10279000831239B0A908740502456DF0A31242CF27
:1027A000A32274F21218118908890C750D007403A4
:1027B000780C12178E850C0A850D0B9002DFF090B5
:1027C00002DD1237BB1228AE602E1213357900805D
:1027D0001D890C750D007402780C12178E9002DDA5
:1027E000123C548882F583A3A3E4F0A3F00990037C
:1027F0003BE0F8E9C39840D990033BE0FA850AF042
:10280000A4CAA8F0850BF0A428FB12132F8A0C8B06
:102810000DAE0CAF0DEE4F70030228A490033BE009
:10282000FC850AF0A4CCA8F0850BF0A428FD790063
:1028300012127B7C0080318D0C750D007403780CB6
:1028400012178E8A828B831228A988828983E4F0EA
:102850001228B6A3A3F0A3F00DEDC3950840D8EE5F
:10286000250AFEEF350BFF0C90033BE0F8ECC39814
:1028700050288C0C750D007402780C12178E900283
:10288000DD1228A9E82402500109FAE9FB8A828BAB
:1028900083EEF0A3EFF07D0080BFE5089002DFF04B
:1028A000790080027913024570123C58F922A3A3E3
:1028B00012335DEA4B22A31242CFA3A3A32274F4E6
:1028C0001218117900EAA2E0501F7508CE75098E22
:1028D0007808121A2479107C047D007AF67B1A128B
:1028E000072374021217B7E9F980007F040218E386
:1028F000C082C0839002E0123388601C8882898382
:10290000A3A3E06A7003A3E06B8882898370E8A3C5
:10291000A3A3A312335980047A007B000225E1743B
:10292000F212181174FD1217A1EAFEEBFF8518824E
:10293000851983E4F0A3F074021217ED7401F0120C
:10294000338570141208D912132F9002E3122F9BB3
:102950001233857003022AB112309BEE2404F50A6B
:10296000E43FF50B850A82F583E024FE603C24FCFD
:10297000607424FE607E24FE7003022A0124FE702F
:1029800003022A0E24FE7003022A1B24FE70030297
:102990002A2824FE7003022A3524FC7003022A56DA
:1029A00024FE7003022A6E022AAA1208D99002E5B8
:1029B000EAF0A3EB122ABD12026DE96003022AAA13
:1029C0009002E5121A3B8E828F83A3A3A3A3A312C6
:1029D00042ED8508828509831233591206F3740289
:1029E0001217B7022AAAAC18AD19EEFAEFFB1207BC
:1029F00041022A79AC18AD19EEFAEFFB12074780B5
:102A000078AC18AD19EEFAEFFB12074D806BAC18DD
:102A1000AD19EEFAEFFB120753805EAC18AD19EE5C
:102A2000FAEFFB1207598051AC18AD19EEFAEFFB23
:102A300012075F804474021217F7880C890D780C16
:102A4000121A247402121807EEFAEFFB12076574CB
:102A5000021217B78023AC18AD19EEFAEFFB12077C
:102A60006BE9F8701674021217EDE4F0803CAC18B4
:102A7000AD19EEFAEFFB120771E9F8E8602C8E82CF
:102A80008F83A3E064146022850A82850B83E09023
:102A900002E5F08518828519831233599002E612F7
:102AA0002F9BE8A3122ABD120267EEFAEFFB120673
:102AB000C974021217EDE0F9740302456DF07CE56C
:102AC0007D0285088285098312335D2274E812181D
:102AD0001174FA1217A174041217EDECF0A3EDF0C3
:102AE0008A128B13EA2405F50EE43513F50FEA2458
:102AF00002F510E43513F511851082F58312335970
:102B00001203B18A0A8B0B7508007C037D007900E3
:102B10007AE57B0212127BE50E2402F516E4350FEE
:102B2000F51774021217F7880C890D780C121A2405
:102B3000850E82850F83A3A3A3A3E0F50C750D007A
:102B4000780C121A24E50E2405F50CE4350FF50D6A
:102B5000780C121A248516828517831236601206A5
:102B60002D74061217B78A0C8B0DE50C450D7003FA
:102B7000022CED8020851882851983E08882898364
:102B8000F00508851882851983A3E0C0E0122D2E78
:102B9000D0E0F00508E50A24FBFAE50B34FFFBC39F
:102BA000E5089AE49B4003022CED7E007F0085122D
:102BB00082851383A3A3A3A3E0F5097809121A2839
:102BC000E4F514F5157814121A247514E27515023B
:102BD0007814121A249002E3121A3B74091217EDAA
:102BE000121A3BE50A24F9F9AC0CAD0D851082856B
:102BF000118312335912079B74091217B7E9600346
:102C0000022C8E850E82850F83A3A3A3A3A3A3A367
:102C1000E0F89002E2E0687075E0F5148E15781423
:102C2000121A241242EA850E82850F83A3A3A3A35E
:102C3000A3A3A3A312335912127574021217B7E992
:102C4000604C9002E6123388703BE4F5147814125D
:102C50001A247CFF7DFF790785108285118312334A
:102C60005912070574021217B712338E7017850EAA
:102C700082850F8312448774041217ED123D4812A7
:102C80003691022D21850C82850D83122D24A818E2
:102C9000A919881489157814121A2474041217EDCE
:102CA000121A3B851682851783122F9112063974EA
:102CB000041217B78A0C8B0DEE4F7003022B6A12A9
:102CC0002D2EEE122D39123647EF122D39F8A3E0D2
:102CD0003400F9E50C450D6003022B758882898369
:102CE00074FFF00508122D2E74FFF00508E508604A
:102CF0001A1313543F122FA1120279E960099002AE
:102D0000E61233591212E779008016850E82850F7C
:102D10008312448774041217ED123D481239B079BA
:102D20000A02361AA3A3A3A3E0FEA3E0FF22A80889
:102D30009002E6E02812364722F00508089002E6E5
:102D4000E0282274E812181174FA1217A174021202
:102D500017ED122F9B74041217EDECF0A3EDF07435
:102D6000021217EDE02405123630E0F50CA3E0F571
:102D70000D74021217EDE02402F510A3E03400F503
:102D800011851082F5831233591203B1750800754D
:102D90000900EA24FCFEEB34FFFF8008050CE50C7B
:102DA0007002050DA808C3EE98EF94005003022F9F
:102DB0004DA818A919880E890F780E121A248514A7
:102DC00082851583A3A3A3A31242F1121A24E5144A
:102DD0002405F50EE43515F50F780E121A24851426
:102DE00082851583122F8F12062D74061217B78A4B
:102DF0000E8B0FEA450F7003022F4DEA2404F516DF
:102E0000E4350FF517851682F583E0F50CA3E0F5A0
:102E10000D8518828519831242ED8A828B83A3A3C4
:102E2000A3E0F985108285118312335912061BE93C
:102E3000F5096003022F4D74021217ED123657F593
:102E4000097809121A28E4F512F5137812121A24D7
:102E50007512E27513027812121A249002E3121A04
:102E60003B74071217ED121A3BEEF9AC0EAD0F854D
:102E7000108285118312335912079B74091217B7F8
:102E8000E9F5096003022F4DE508703FE4F50EF502
:102E90000F780E121A247CFF7DFF79098510828538
:102EA000118312335912070574021217B712367DB7
:102EB000700D74041217ED122F847911022F819076
:102EC00002E2E024029002E6F080149002E6E0FACA
:102ED0009002E2E0790024025001096A497072A868
:102EE000089002E2E0FAE82AFAE43400FBEE9AEFF6
:102EF0009B405A851682851783E0C0E09002E71256
:102F00002D33D0E0F00508851682851783A3E0C035
:102F1000E0089002E7122D33D0E0F005089002E2BD
:102F20001242F1121A241242EAA80812362412128E
:102F30006374021217B79002E2E02508F50874FFE7
:102F4000650C700474FF650D6003022D9CE508603C
:102F50001F9002E6E0F5F0E50884122FA112027F2F
:102F6000E960099002E71233591212E779008011E3
:102F7000E509700375090A74041217ED122F84A96C
:102F80000902361A1237BFE50CF0A3E50DF022A3B3
:102F9000A312457CAA0CAB0D22A3A3EAF0A3EBF08D
:102FA000229002E5F07CE57D028510828511831276
:102FB000335D2274EC12181174FC1217A1123AC07E
:102FC00074021218071233531206338A0C8B0DEA5F
:102FD000450D700302308B12309BA818A919881078
:102FE00089117810121A247CFF7DFF790B850882E5
:102FF00085098312335912070574021217B712316B
:1030000091700C850A82850B8312368E0230988E61
:10301000828F83A3A3A3A3E0F5127812121A28E4E7
:10302000F512F5137812121A247512E57513027849
:1030300012121A247810121A2474091217ED121A97
:103040003B74091217EDE0F9AC0CAD0D85088285D3
:10305000098312335912079B74091217B7E9FE70DE
:10306000157CE57D02850882850983123359120299
:1030700085E97009802074166E70027E009002E669
:103080001233591212E7EE7004800B7E01850A821A
:10309000850B831239ADEEF90239C2EE2402F50830
:1030A000E43FF5092274EC12181174FC1217A1EA1E
:1030B000FEEBFF8C0E8D0FEE2405F508E43FF509BD
:1030C0007402121807850882850983123359120683
:1030D000338A0C8B0DEA450D7003023181EE240218
:1030E000F50AE43FF50BA818A91988108911781082
:1030F000121A247CFF7DFF790D12335312070574D9
:10310000021217B7123191700B850882850983125C
:10311000368E807A8E828F83A3A3A3A3E0F51278E4
:1031200012121A28850882850983A3A3121A3B75F7
:1031300012E57513027812121A247810121A2474E8
:10314000091217ED121A3B74091217EDE0F9123348
:103150004F12079B74091217B7E9FE700F7CE57DCB
:103160000212335312028BE97009802074166E70BC
:10317000027E009002E61233591212E7EE700480CC
:103180000B7E018508828509831239ADEEF902397B
:10319000C2123398F510A3E0F511EA45112274E844
:1031A00012181174FE1217A18A168B178C148D1524
:1031B000EA2405F50CE43517F50DEA2402F50EE4D2
:1031C0003517F50F850E82F5831233591203B18A34
:1031D000088B09750B007C037D0079007AE57B0282
:1031E00012127B750A00E50814F5100424FFF50897
:1031F000E50934FFF50980549002E5E0FA9002E217
:10320000E0F8EA28F8E43400F9E50898E50999506F
:103210000D9002E5E0F8E510C3989002E2F0E0F5C9
:10322000127513007812121A241242EA9002E6E094
:103230002AFAA3E03400FB12126374021217B7904B
:1032400002E2E0F89002E5E028F0050A850C8285AC
:103250000D83A3A3123C6440030233349002E5E0E3
:10326000C39508E495094003023334AE0AEE2EFEFE
:10327000E433FF123373AC18AD19124305E439FB84
:103280001206338A128B13AC12AD13EC4D701B7502
:103290000B011233631239B19002E61228B06003B9
:1032A0001212E7A90B740202361C85168285178359
:1032B000A3A3A3A3E0F50B780B121A28E4F512F5EB
:1032C000137812121A247512E27513027812121A68
:1032D000249002E3121A3B74071217ED121A3BA94D
:1032E00010850E82850F8312335912079B740912C1
:1032F00017B7E9F50B709B9002E612338860030262
:1033000031F8E4F512F5137812121A247CFF7DFFD0
:10331000790F850E82850F831233591207057402C7
:103320001217B712338E60030231F812336312366C
:10333000920232A57CE57D02850E82850F831233D1
:1033400059120291E9600302329879000232A5AC69
:103350000CAD0D850A82850B8312335D22E0FAA342
:10336000E0FB22123373E0FAA3E0F9EA85148285C8
:10337000158322850C82850D83E02EF8A3E03FF9AA
:1033800088828983229002E312448BE84922123317
:1033900098F8A3E0F9E849229002E6EAF0A3EBF0FE
:1033A0009002E6E02274E812181174FA1217A17460
:1033B000041217ED122F9B8C168D1774041217ED43
:1033C000E02405F50EA3E03400F50F74041217EDA8
:1033D000E024021236301233591203B18A0A8B0BE1
:1033E0007F007E00A818A919880889097808121A90
:1033F00024850E82850F83A3A3A3A3E0F5088E097D
:103400007808121A24E50E2405F508E4350FF509AD
:103410007808121A24850E82850F83A3A3123660C2
:1034200012062D74061217B78A0C8B0D80291236DE
:1034300051F00F123651F00F9002E212399C121A1D
:10344000241242EAEFF812362412126374021217A1
:10345000B79002E2E02FFFE50C450D70030234E067
:10346000851882851983123AD2A3A3A3E0F98514A3
:103470008285158312335912061BE9FEE50C2404DC
:10348000F510E4350DF511EE705074041217ED12BD
:103490003657F5087808121A28E4F508F50978086F
:1034A000121A247508E27509027808121A2490028B
:1034B000E3121A3B74071217ED121A3BE50A24FABD
:1034C000F9AC0CAD0D8514828515831233591207A2
:1034D0009B74091217B7E9FE603912366D1239B0C4
:1034E000EF70030236079002E6E0F5F0EF849002F9
:1034F000E5F07CE57D02851482851583123359122F
:103500000297E960099002E71233591212E7790035
:1035100002361A8F08EF703BE4F512F51378121299
:103520001A247CFF7DFF791185148285158312335F
:103530005912070574021217B712367D7009123638
:103540006D12369102361A9002E2E024049002E6EF
:10355000F080359002E2E0F89002E6E0FAE8240418
:10356000FCE43400FDEC6A4D60030234E6E50A2415
:10357000FAFAE50B34FFFBE50828F8E43400F9EA31
:1035800098EB9950030234E6851082851183E0C0E0
:10359000E09002E7E02FF8A3E034008882F583D0C2
:1035A000E0F00F851082851183A3E0C0E012363E63
:1035B000D0E0F00F74021217F78808890978081212
:1035C0001A2474021217ED121A3B850E82850F839E
:1035D000122F8F12063974041217B78A0C8B0DEA5A
:1035E000450D700302342E74021217EDE0C0E01294
:1035F000363ED0E0F00F74021217EDA3E0C0E012E7
:10360000363ED0E0023436EE70027E0A850E8285A8
:103610000F831236731239B0EEF974061217B77FA2
:10362000100218E39002E7E028FAA3E03400FB223E
:10363000F514A3E03400F515851482F583221236C3
:1036400042229002E7E02FFAA3E034008A82F58359
:103650002212364274FF221237BFA3A3A3A3E02293
:1036600012457C850E82850F8312335D2285108280
:1036700085118312448B851682851783229002E779
:10368000EAF0A3EBF09002E712448BE849221239EA
:10369000B6E8F0A3E9F079112274EA12181174FE69
:1036A0001217A18A088B098C128D13EA2405FEE4F7
:1036B0003509FFAC18AD198E828F8312335912066B
:1036C000338A0C8B0DEE2406F50EE43FF50FEA4528
:1036D0000D7003023791E5082402F50AE43509F577
:1036E0000B8A828B83A3A3A3E0A2E55028851882CE
:1036F00085198312335912078F8A108B11EA4511ED
:103700006020791212334F85108285118312180FB1
:10371000E9F50C707F850E82850F83E06009795290
:103720008011750C0E806D850882850983A3A3A383
:10373000A3E0F9E4F508F5097808121A248E828FBF
:1037400083A3A3E0F5087808121A248E828F83A33E
:10375000A3A3121A3B8E828F831242ED12335312AF
:1037600007A174061217B7E9F50C7011850E828552
:103770000F83E0702D12335312029D80257416655D
:103780000C7011750C0074181217ED1237BBE48021
:1037900010750C01124483851282851383E8F0A30F
:1037A000E9F0850E82850F83E0600479008002A92C
:1037B0000C74021217B77F0E0218E31237BF22E013
:1037C000F8A3E0F58388822274EC12181174F712C2
:1037D00017A18A0A8B0B8C108D11EA2405FEE435A3
:1037E0000BFF750C00AC18AD198E828F8312335904
:1037F0001206338A088B09EA45097003023987E506
:103800000A2402F50A5002050B8A828B83A3A3A324
:10381000E0A2E5502F8518828519831233591207CB
:103820008F8A0C8B0DEA450D604F7912AC08AD09FB
:10383000123353850C82850D8312180FE9F50C6045
:103840000302398A850A82850B83E0F508A3E0F537
:1038500009AA08FB120783EA4B70197AFF7BFF1253
:103860000783EA4B700302397D8A828B83E508F077
:10387000A3E509F07508008008750C0E02398A0569
:10388000089002DFE0F8E508C398400302397D851F
:10389000080E750F007403780E12178E8A828B83C0
:1038A000A3A3E0250EF8A3E0350F123D5170D08E92
:1038B000828F831239A5122F9B8E828F83A3A3122E
:1038C00039A5122F99EE2404F508E43FF50985087F
:1038D00082F583E088828983A3A3A3A3F0A3E4F005
:1038E000EE2405F50EE43FF50F850E82F5831239BF
:1038F000A5A3A3A3A3122F9975120775130078121D
:10390000121A24EEFCEFFD74041217FF12126374F6
:10391000021217B7E4F5127812121A24850882856C
:103920000983E0FC7D0079171233531207057402F6
:103930001217B774071217ED122F9B74071217EDA9
:10394000E0FA4B603D85088285098312399C121A82
:1039500024850E82850F831242ED121263740212C7
:1039600017B774021218071233531202A3E9602624
:1039700074071217ED1233591212E78019750C09EA
:103980008008750C118003750C0112448385108228
:103990008511831239B0A90C74098028E0F50875E7
:1039A000090078082212335D88828983221239B691
:1039B000E8F0A3E9F022E0F8A3E0F9850E82850F94
:1039C000832274041217B77F0C0218E374EC1218E8
:1039D00011123AC0751000EE2402F50CE43FF50D0B
:1039E000850C82F5831233591207838A088B09EA02
:1039F00045097003023AA4850A82850B83E06401BD
:103A00006003023A99AC08AD09AA0AAB0B1207771A
:103A1000E9606E850882850983122D26EE2406F55D
:103A20000AE43FF50B8E828F83A3A3121A3B8E828A
:103A30008F83A3A3A3A3121A3B850A82850B83124B
:103A40001A3B79188E828F83123AD2123359120799
:103A5000A174061217B7E9F8741668700B850A820C
:103A6000850B83E4F0A38014E860128E828F8312AA
:103A70003359850E82850F83EAF0A3EBF08810801E
:103A800018780E121A24AC08AD09EEFAEFFB1207F3
:103A90007D74021217B7E9F510AA08AB091207895D
:103AA000E510700E850C82850D831233591202A920
:103AB0008009741665107003751000A9100239C7CB
:103AC000EAFEEBFF8C0E8D0FEE2405F50AE43FF5C0
:103AD0000B2212457C850C82850D832274EA121814
:103AE000117508007509007E007F00750A00EC243E
:103AF00002F510E43DF5118035EC65087003ED65C5
:103B0000096003023B9188828983A3A3E06A700362
:103B1000A3E06B707C88828983A3A3A3A31244874C
:103B2000EE28FEEF39FFEA28FAEB39FB050A123CD2
:103B300061503A850A0C750D007403780C12178ECB
:103B4000851082851183123C54123D51601FE50897
:103B5000450970A58C088D0988828983122D2488D7
:103B6000828983A3A3E02EFAA3E03F80BEE50AC3C7
:103B700094025003023C4F750800750900EE4F6037
:103B800010EEFAEFFB1212E18A0E8B0FEA450F706E
:103B9000057900023C51750B00023C24850B0C7525
:103BA0000D007403780C12178E851082851183E046
:103BB000250CF50CA3E0350DF50DE50C2406F514E8
:103BC000E4350DF515851482F583123D566042E506
:103BD0000C2404F512E4350DF513851282F58312D9
:103BE0001A3BE50E2508FAE50F3509FB121263743E
:103BF000021217B7851282851383E02508F508A302
:103C0000E03509F50985148285158312335912129E
:103C1000E7E50B600D7C087D007900AA0CAB0D1266
:103C2000127B050BE50BC3950A5003023B9C8510E4
:103C30008285118312448788828983A3A3A3A3A3C7
:103C4000A3E50EF0A3E50F1228B7EEF0A3EFF0798D
:103C5000010237B6123C5822E0250CF8A3E0350DDE
:103C6000229002DFE0F8E50AC3982274F0121811DE
:103C70008A0E8B0F8C0A8D0B750D00750C00805011
:103C80007916EE2406F508E43FF5098E828F83A3AA
:103C9000A3121A3B8E828F83A3A3A3A3121A3B8580
:103CA0000882850983121A3B850E82850F83A3A3A0
:103CB0001233591207A174061217B7E9F50D7416DD
:103CC000650D706C850882850983E4F0A3F0050C0E
:103CD0009002DFE0F8E50CC3985066AA0C8A0875DC
:103CE00009007403780812178E850A82850B83A356
:103CF000A3123DA0E8FEE9FF8E828F83123D56603D
:103D000040EA2401F508E43400F5099002DFE0659B
:103D1000087002E509601488828983A3A3A3A3A382
:103D2000A3A3A31233886003023C807918023C826B
:103D3000E9609B12448374101217ED123D4812394A
:103D4000B0A90D7F080218E3E0FAA3E0F5838A82A8
:103D500022F98882898312457CEC4D2274F6121870
:103D6000117C0080010C90033BE0F8ECC398501EDE
:103D70008C087509007402780812178E123D95E0C0
:103D80006A7003A3E06B70DDE8FAE9FB80047A0057
:103D90007B00023E389002DD123DA088828983229A
:103DA000E02508F8A3E03509F92274F21218118A07
:103DB000088B09750A0080278E828F83A3A3A3A393
:103DC0001228AE60031212E77C087D007900EEFA3B
:103DD000EFFB12127B8E828F83E4F0A3F0050A12B0
:103DE0003C615027850A0C750D007403780C12177E
:103DF0008E850882850983A3A3E0250CFEA3E03508
:103E00000DFF8E828F8312338870AD8508828509FD
:103E10008374FFF0A3F002457074F61218111207B4
:103E2000358A828B83E582458370067A007B008029
:103E300007A3A3A3A31233597F020218E374F41259
:103E4000181189088C828D83E06402703C1244262C
:103E5000FEA3E0F9EEF87402687003742969702912
:103E6000750A02750B00780A121A2474101217EDE5
:103E7000121A3B74101217ED121A3BA90812118581
:103E800074061217B7E9F9800279010228EB74E889
:103E900012181174FB1217A1E9851882851983F095
:103EA0008A168B17ECFEEDFF7510008E828F83A3B0
:103EB000A3A3E0A2E4502D741D1217ED1233591282
:103EC000078F8A828B83E582458370030242C5791E
:103ED0000AEEFCEFFDAA16AB1712180FE9F51060F9
:103EE000030242C8741F1217EDE0F508A3E0F509BC
:103EF00074211217EDE0F50AA3E0F50B74231217F5
:103F0000EDE0F50EA3E0F50F8E828F83E064026092
:103F100003024266A3124487850882850983A3852C
:103F20008212858313EE2406F50CE43FF50D88829A
:103F30008983124305F514E439F5157814121AAE85
:103F4000010000280128683F070002282D400328AF
:103F50009B3F00295C41012987410229284103290F
:103F60005C41042900426642E50E450F60030242AF
:103F700061850C82850D83124487E8FAE9FB8A8209
:103F80008B83E0850A82850B83124310121A248AE0
:103F9000828B83A3E0FCA3E00241EAE50E450F60BB
:103FA00003024261850A82850B837401F01242FA92
:103FB000850882850983F07C007D008E828F83A333
:103FC000A3A3A3E02401FAA3E03400FB120633EA22
:103FD0004B60408A828B83E02402F8850A82850B3D
:103FE00083E028F0EA2404F8E43BF988828983E03E
:103FF00085128285138312431E124310121A248ADB
:10400000828B83A31242EDE5082403FAE43509FB11
:104010000241EF850A82850B83E02404F07C047D55
:10402000007900AA12AB1312127B0242C8E50E45BA
:104030000F60030242611242FAFEA3E0FF850A828A
:10404000850B837404F0EE850882850983F0EF8583
:104050001282851383F07403121807EEFAEFFB1235
:1040600006338A0C8B0DEA450D700302410B8A82E0
:104070008B83A3A3122D2474011217F7880E890FC6
:10408000780E121A2474051217ED121A3B7CFF7D6C
:10409000FF12063974041217B78B0FEA450F7033FD
:1040A000850C82850D831242F1121A24850C8285BB
:1040B0000D83A3121A3B7C027D007A827B8F120350
:1040C0009F74041217B7E9700A74011217ED74FF98
:1040D000F0A3F08E828F83E064027039750C027554
:1040E0000D00780C121A248E828F83A31242EDE504
:1040F000082404FAE43509FB12126374021217B79C
:10410000850A82850B83E02402800974011217ED71
:10411000EEF0A3EFF074011217ED1242DF740112FA
:1041200017ED1242D602425BE50E450F60030242D4
:1041300061850C82850D83124575AA16AB17121185
:104140008B850A82850B837402F08508828509833A
:10415000EAF0851282851383EB02425EE50E450F7D
:1041600060030242611242FAF8A3E0F9850A8285EF
:104170000B837402F0E8850882850983F0E98512D3
:104180008285138302425E850C82850D831233592A
:1041900012125DEAFAF8C3950EE4950F405CE865EB
:1041A0000E450F70047A008021851882851983E0FE
:1041B000FCE50E2CFCE4350FFDC3EC98ED940050AB
:1041C00003E08005E50ECAC39AFAEA850A82850BE8
:1041D00083F08A0A750B00780A121A24850C8285EE
:1041E0000D83E0250EFCA3E0350FFDAA08AB0912F4
:1041F000126374021217B70242C87510070242C850
:10420000E50E450F705B850C82850D831244878512
:104210000A82850B837407F0888289831242D71241
:1042200042CFE0851282851383F0E82402FAE43954
:10423000FB8A828B831242DF8A828B831242D6A34F
:10424000A31228B61242E4F0E82405F850010988C8
:104250008289831242E4A312431EA3A3A3A3F08086
:104260006775100B8062741D1217ED123359120717
:10427000358A828B83E5824583604A124487880CA5
:10428000890DE8450D603E74251217EDE0F51078B4
:1042900010121A28780E121A24780A121A24780892
:1042A000121A2474071217EDE0F9EEFCEFFDAA16BE
:1042B000AB17850C82850D8312180F74071217B780
:1042C000E9F510800375100EA910740502361CF074
:1042D00088828983A322A3E085088285098322122C
:1042E0004325F022124325A3A3229002E312457C2A
:1042F00022E0F50E750F00780E22850C82850D8365
:104300001237BFE022E0FAA3E0F8E4C8F9EA282275
:10431000F08A828B83E0F50A750B00780A2212423C
:10432000CF12432522E0850882850983A3A3227446
:10433000EE12181174FE1217A18A088B09ECFEED1B
:10434000FF890AAC18AD19EEFAEFFB1206338A0C9E
:104350008B0DEA450D700302441785188285198379
:104360001233591207358A828B83E58245837003A5
:10437000024412A3A3124487880E890FE8450F70E8
:104380000302441274141217EDE0F510A3E0F511C6
:10439000E50AF50B780B121A2874191217ED121A88
:1043A0003B7810121A24741B1217EDE0F9AC0CAD17
:1043B0000DAA08AB09850E82850F8312180F7405AC
:1043C0001217B7E9F50B705274FE650A604C850C44
:1043D00082850D83E064027041124426FAA3E0F95D
:1043E000EAF87402687003742969702E851082855A
:1043F0001183124305F50CE439F50D780C121A24DB
:10440000EEFCEFFDAA08AB091207B974021217B748
:104410008008750B0E8003750B01A90B740212172F
:10442000B77F0A0218E3A312448B88828983E022B3
:1044300074F612181174FE1217A1740C1217ED12F3
:104440004487E8851882851983F074011217EDE915
:10445000F0E4F508F5097808121A247508027808BE
:10446000121A2474041217F7880889097808121A96
:104470002479FE1207A174061217B774021217B737
:10448000023E388E828F8312448B22E0F8A3E0F93B
:104490002274F7121811EAFEEBFF89089002FA1253
:1044A00042ED12118BEA5402600BA908EEFAEFFB01
:1044B000120627800279017F010218E374F21218B4
:1044C0001174FE1217A1EAFEEBFF890A7401650A56
:1044D00060147402650A600302456B79011209A534
:1044E000E9600302456BEEFAEFFB120783EA4B60CB
:1044F00003120789A818A919880889097808121AC7
:10450000247508027509007808121A2475087A754E
:10451000098F7808121A247CFF7DFF7A017B001234
:10452000062D74061217B78038850882850983A383
:10453000A3A3A3A3A3124575EEFAEFFB12117FE428
:10454000F50CF50D780C121A2474021217ED121ADC
:104550003B7CFF7DFFAA08AB0912063974041217D1
:10456000B78A088B09E508450970BE74021217B7AF
:104570007F060218E31237BF12457C22E0FCA3E05D
:10458000FD2274F41218118A088B09ECFEEDFF90DD
:104590001AF4E0F4604B7A097B00121287EA4B6050
:1045A000408A828B8374B1F0A3E41245E4F08A82DE
:1045B0008B83A3A3E508F0A3E5091245E4A3EEF07D
:1045C000A3EFF0740C1217ED1244878A828B83A339
:1045D000A3A3A3A3A3A31239B0901AF4E0F9121273
:1045E000930228EBF08A828B83A3A3A3A322C08229
:1045F000C0839061907404F0A37448F0A3E4F09039
:1046000061807440F09061BC7407F09061877469B8
:10461000F09061B67416F07900120AD77902120A86
:10462000DD9025D0E493F46006E493F9120AB3799F
:1046300005120E4F024A56C082C083E9540FF9900A
:104640006185E0696012E5C654B84441F5C6E59E4F
:104650005447644170F8E9F053C6B8E59E5447707A
:10466000FA024A5674F7121811AEA853A87E120A1D
:10467000BFC2BA539AFEC289759B00C2C2120AC554
:1046800075A91175B905120ACBD2BA439A01748083
:104690005E42A8025119C082C083906181E4F0A3F8
:1046A000801D75E90075910075BF00020132C0825E
:1046B000C083906181E4F0A374C0F0A3E48002F0B1
:1046C000A3F0024A56C082C08374F81217A1900367
:1046D0006B125E17700302479890036BE0544060C2
:1046E000177908AA18AB19120BF1AA18AB191208FE
:1046F0001990036BE054BFF0E054806010790C7A9D
:104700001C7B07120BF190036BE0547FF0E0A2E0FA
:10471000500F7900120AD712081F90036BE054FE65
:10472000F0E05402600F7901120AD712081F9003BB
:104730006BE054FDF0E05404600F7900120ADD12C2
:10474000082590036BE054FBF0E05408600F7901FA
:10475000120ADD12082590036BE054F7F0E05410C4
:10476000600F7902120ADD12082590036BE054EF06
:10477000F0E05420600F7903120ADD12082590033F
:104780006BE054DFF0A3E05401600D120AE9120857
:104790002B90036CE054FEF074081217B7024A56CF
:1047A000C082C083E9600514602A804F90619A74CA
:1047B00033F0A37455F09061A0743AF09006F6E0DF
:1047C00064017009C29190036D7467802D90036D30
:1047D0007461802690619A743FF0A3745AF09061DE
:1047E000A0747FF09006F6E064017009D291900306
:1047F0006D7471800590036D746AF0024A56C08230
:10480000C083E9600B14600D14601714600C8020E5
:104810009025D480159025D580109006F6E064018F
:1048200070059025D680039025D7E493906186F09B
:10483000024A5674EE12181174F41217A1908EDE0B
:10484000AC18AD1974041216B49025D493F4600317
:1048500002494B907808E0C39402500302492F901C
:104860008EB4740412180774081216B47F00750C05
:10487000FF750DFF750EFF7E00EFFC800F74086E54
:10488000606D74096E6068740A6E60638E087509E5
:10489000007402780812178E124955121659A90988
:1048A000E50AC9F8881074187808121574E51045DF
:1048B00008FAE9FBEC2CF8E433F974041217EDE57F
:1048C0008228F582E58339124FEFC3E89AE99B40CD
:1048D00008E8C39AF8E99B8006EAC398F8EB99F9CF
:1048E000C3E8950CE9950D5006880C890D8E0E0EC7
:1048F000EEC39413408774FF650C700474FF650D5C
:104900006023850E087402780812178E124955121A
:104910001659851882851983E5822CF582E4358342
:10492000F583E508F00FEFC39404500302486E7559
:1049300008017509007808121A2474021218077AFF
:10494000757B091211D974021217B7740C1217B7BC
:104950007F0A0218E374482508F58274783509F552
:1049600083780822C082C083906186E0F89025D7C2
:10497000E4936870099025D6E493906186F0906185
:10498000AE7468F0A3746AF090624574FBF0A304FF
:10499000F053F4FD43FE029006F67401F09061A01E
:1049A000E0643A7004790080027901120AD7024A61
:1049B00056C082C0839006D4E0640170139006DA7A
:1049C000E0F87401686019E87006A3E06401601003
:1049D0009006EBE06401700C9006F1E06401700455
:1049E000790C80027900024A56124FE0940622E0C8
:1049F000C4333354C0222414F582E438F58322C032
:104A000082C0839006DE7425F09006DC7401F0A36A
:104A1000E4F07A01FB120DCB124A4A241AF582E423
:104A200038F583740DF0A3740BF09006DBE064019D
:104A300070169006DAE070107901120E2B120DFB41
:104A4000120E257900120E37800C9006CA124DBF47
:104A500022E0F912254BD083D082020132C082C0FD
:104A60008374FA1217A19006D3E064017008120A49
:104A7000F59006D3E4F075E1F1124A4A2415F58267
:104A8000E438F5837401F09006D5E0640170469037
:104A90008EC8AC18AD1974061216B475D90D9006EF
:104AA000CC1249EF4403F5D97A00EAF874CD1254D8
:104AB000EA34061249E940F27A00EAF8851882855C
:104AC0001983E5821254EA35831249E940EC75E115
:104AD00095790180027900120DD1901B18124B3D7F
:104AE0007499F0A3740CF0A3124B3D124B3D124C81
:104AF00092749FF0A3740C124CA79006CCE0F97A44
:104B0000CD7B06120DAD9006DEE0F912254B790142
:104B1000120DD7908EDA121677120DEF908F2612A3
:104B20001677120DB97900120E43124A4A1249F64D
:104B30007416F09003697405F00402479A7493F0B8
:104B4000A3740CF0A32274F71218118908A8081294
:104B500057EA9006E3E0F97AE47B06120DAD900681
:104B6000F1E070257900120E0DEE2406FAEF340103
:104B7000FBEE240CF582EF3401F583E0700479003C
:104B800080027901120DB380057901120E0D75E1D5
:104B9000F175D9239006E31249EF4405F5D97A005F
:104BA000EAF874E41254EA34061249E940F275D97D
:104BB0000075D90075D90075D90075D90075D9006F
:104BC0007A00124C7F2422124FD640F67A00124C03
:104BD0007F2426F582E439124F20EAC3940340EE85
:104BE000EE242B124FCB242C124FCB242D124FCB63
:104BF000242E124FCB242F124FCB2430124FCB2414
:104C000031124FCB2432124FCB2433124FBF124CF0
:104C10007F245DF582E43912504D40F2EE243712C4
:104C200050EB541FF8EE242A1250EBC43354E048E2
:104C3000F5D975E195901B187463F0A3740CF0A37B
:104C40007469F0A3740C124C89746FF0A3740C1285
:104C50004CA79006F0E0F912254B908EDA121677E9
:104C6000120DEF908F26121677120DB990600DE499
:104C7000F07901120E439003697406F0025119EAAB
:104C8000F8EE28F8E43FF9E822F0A3124C92124C17
:104C90009222124C9622745DF0A3740CF0A3745D02
:104CA000F0A3740CF0A322124CAB22F0901B26123E
:104CB0004CB7A3124CB722124C96745DF0A3740C3F
:104CC000F02274EC1218119006E1125801781012BB
:104CD00016599006F2E0FAF875F00DA4C8ACF02C65
:104CE00012599AEE2EFEEF33FF8E0CF50D750E0065
:104CF000750F0085100885110985120A85130B9020
:104D00008EEA78081215BF7808121A2085100885D7
:104D1000110985120A85130B7808790C1215AC78E5
:104D200010790C121505E4F50EF50F7808790C12C0
:104D300015E58A0C750D007403780C12178E78082F
:104D4000790C1215AC908EE67808121620AA08ABE2
:104D500009AC0AAD0B1224E374041217B78A088B4E
:104D600009A808A909C3EE98EF995006E82EF8E9BA
:104D70003FF9E890600EF0E9A3F0EEA3F0EFA3F0A6
:104D800090600D74C1F07F0C0218E3C082C0839064
:104D900006CA124DAB9006DE024A51C082C0839013
:104DA00006E1124DAB9006F0024A51124DBF124D72
:104DB000B5F0A3F0222406F582E438F583E422E07E
:104DC000F8A3E0C82202013274F2121811124E91B7
:104DD000FAEE2483F50AE43FF50B850A82F583E0B9
:104DE0006004780480027800E8240EF8EAC3985042
:104DF00003024E8C75080C9006FCE4F0EE2476124B
:104E000050EB9006FDF07902EE2477FCE43FFD7A4A
:104E1000FE7B06120BDF7902EE2479FCE43FFD12E3
:104E20000BDF7902EE247BFCE43FFD120BDF7902FD
:104E3000EE247DFCE43FFD120BDFEE2474124F32B2
:104E4000120BDF850A82850B83E0601E7508FC75F6
:104E500009067808121A247C0C7903EEFAEFFB128B
:104E60000C5174021217B775081074012508F5D992
:104E700075D9037A008003124F1DEAC3950840F7E5
:104E800075E1957904120DF57901800279000252DD
:104E90003DEAFEEBFF9061D0E0F87480C398227485
:104EA000F21218111252426004780480027800E86D
:104EB000240AF8EAC3984060750A089006FC740159
:104EC000F079057CC07D067AFD7B06120BDFEE24AF
:104ED00080124F32120BDF850882850983E0601E45
:104EE0007508FC7509067808121A247C087903EE07
:104EF000FAEFFB120C5174021217B7750A0C12511B
:104F00009C8003124F1DEAC3950A40F775E195791D
:104F100004120DF579018002790002523D124F27EB
:104F2000F583E0F5D90A22EAF874FC28F582E43426
:104F30000622FCE43FFD8E828F83A3A3A3A3A312CA
:104F40005E248C828D83E028F0A3E039F079022280
:104F500074F7121811EAFEEBFF9061D0E0705B75F8
:104F6000D91875D90375D9037A00124C7F249C1285
:104F70004FE940F6EE24A4124FCB24A5124FBF12E6
:104F80004C7F2494124FE940F67A00124C7F24881B
:104F9000124FD640F675E1957908EE2494FAE43F75
:104FA000FB120BE57904EE2488FAE43FFB120BE5D3
:104FB0007904120DF51250F680027900025119F5AC
:104FC00082E43FF583E0F5D97A0022F582E43FF5EB
:104FD00083E0F5D9EE22124FDC940422F582E43905
:104FE000F583E0F5D90AEAC322124FDC940822F5D2
:104FF00083125E242274F6121811EAFEEBFF90066B
:10500000FC7406125090121A247C017903120C5180
:1050100074021217B775D90675D9037A0012504A6F
:1050200040FB75E195900369E064087018EE246F09
:10503000F582E43F124FEFEE2471F582E43FF583F1
:10504000E8F0A3E9F079010252DB124F27124FE09A
:1050500094052274F6121811EAFEEBFF9061D0E07D
:1050600070299006FC740A125090121A247C01795F
:1050700003120C5174021217B775D90675D9037A49
:105080000012504A40FB1250F3800279000252DBBA
:10509000F07508FC75090678082274F6121811EAF2
:1050A000FEEBFF9061D0E0703D7A019006FC740B3E
:1050B000F0900369E06407701B7508FC75090678B9
:1050C00008121A247C017903EEFA120C51740212B0
:1050D00017B77A051252EE80031252F9EBC39A40C9
:1050E000F81250F3800279000252DBF582E43FF5BA
:1050F00083E02275E195EE246FF582E43FF583129B
:105100005E24EE2471F582E43FF583E8F0A3E9F034
:10511000790122A2E092AF79007F010218E374F5D1
:105120001218111251A86004780480027800E82453
:105130000BF8EAC3984052750A099006FC7408F00F
:10514000F9125190120BDF850882850983E0601EF9
:105150007508FC7509067808121A247C097903EE93
:10516000FAEFFB120C5174021217B7750A0D1251A7
:105170009C8003124F1DEAC3950A40F775E19579AB
:1051800004120DF51250F6800279007F030218E335
:10519000EE24E5FCE43FFD7AFD7B06227401250A3E
:1051A000F5D975D9037A0022125252F8E43FF988F2
:1051B0000889098882F583E02274F21218111252CC
:1051C000426004780480027800E82408F8EAC39872
:1051D0004069750A069006FC740CF0900386E09016
:1051E00006FDF079027C877D037AFE7B06120BDFD9
:1051F00079027C897D03120BDF850882850983E0B3
:10520000601E7508FC7509067808121A247C067958
:1052100003EEFAEFFB120C5174021217B7750A0A6B
:1052200012519C8003124F1DEAC3950A40F775E1A5
:10523000957904120DF51250F6800279007F06026E
:1052400018E3125252F508E43FF509850882F58308
:10525000E022EAFEEBFF9061D0E0F87480C398FA98
:10526000EE24832274F6121811124E91FCEE248360
:10527000F8E43FF988828983E060047A0480027A46
:1052800000EA2404FAECC39A404F7A029006FCEA42
:10529000F0EE24F7F582E43F125304E0601B75083A
:1052A000FC7509067808121A247C027903EEFA12BA
:1052B0000C5174021217B77A061252EE8003125282
:1052C000F9EBC39A40F875E1951252E07904120D9A
:1052D000F5EE240D1250F9800279007F020218E3E6
:1052E000EE241DF582E43FF583E4F0A3F02274017F
:1052F0002AF5D975D9037B0022EB124F28F583E0FC
:10530000F5D90B22F583E09006FDF088828983228F
:1053100074F6121811124E95FEEA2483F8E43BF954
:1053200088828983E060047C0480027C00EC240491
:10533000FCEEC39C40477C029006FC7407F0EA2414
:10534000F8F582E43B125304E060177508FC750918
:10535000067808121A247903120C5174021217B736
:105360007C0674012CF5D975D9037A008003124F9D
:105370001DEAC39C40F875E195790180027900022D
:1053800052DB74F71218118908A2AFE433FFC2AFE1
:105390007E0012541480010E8C828D83E0F8EEC3DF
:1053A00098500CEEF81253C2E0650870EA800B12B8
:1053B00053C2E508125E2AE004F0EFA2E092AF02C9
:1053C0005119125425125AA42274F7121811A2AFBF
:1053D000E433FFC2AF1254148C828D83E014F07E4C
:1053E000008016EE125420246BF582E439F583E038
:1053F000C0E0125A9FD0E0F00E8C828D83E0F8EE70
:10540000C39840DFEA246DF582E43BF58374FF1214
:10541000544B80A6EA246EF8E43BF9E8FCE9FD224F
:10542000F812542522EA28F8E43BF9E822C082C0A9
:1054300083A8A8C2AFEA1256BBE912544BE8A2E710
:10544000E433FAE8A2E792AF024A56F0EA2469127E
:10545000545322F582E43BF583E4F02274F21218EF
:10546000118C828D83A3A3A3A3E0541FF0EA2436FA
:10547000125B668E828F83E4F0750C00A80CEC281A
:10548000F508E43DF509850882F583E0C0E0125691
:10549000D4D0E0F0750D00850882850983E0F50A17
:1054A000750B00E50D780A12176FE50AA2E050258A
:1054B000E50C33333354F8250DC0E08E828F83E042
:1054C0001254202438F582E439F583D0E0F08E823E
:1054D0008F83E004F0050DE50DC3940840B9050C79
:1054E000E50CC39405409502523D28F582E42274F0
:1054F000F4121811900395E0640370030256B57C12
:1055000000ECF875F00DA4C8AAF02A12577CE060F0
:10551000030256ABE82404FAE439FB8A828B83A3A6
:10552000A37401125DC3A3A3A3E4F0EA2404125BF5
:1055300066EC8E828F83F0125D647401F0EA24675A
:10554000F582E43BF58374011256E0E4F0A31256B1
:10555000E0A3A31256F2240FF582E43BF583740115
:10556000F0EA2435125453F508F509F50AF50BEA6B
:105570002418F582E43BF5837808121668EA241CA7
:105580001256C4241D1256EB247F1256C4247312E3
:1055900056C424821256C42468F582E43BF5837411
:1055A0008012544BEA246E1256C424ED1256C424C1
:1055B000EE1256C424EF1256C424F01256C424F13D
:1055C0001256EB24F31256EB24F6125453125D6E6E
:1055D000E4F0EA24D31256C424D41256C424D5F5D8
:1055E00082E43BF5837808121668EA24D9F582E450
:1055F0003BF5837808121668EA24DF1256C424E1CA
:105600001256C424DD1256C424E21256C424E312F6
:1056100056C424F91256EB24FB1256EB24FD125605
:10562000EB24FF1256EB240C1256C924061256C95D
:1056300024071256C924081256C924091256C9242F
:105640000A1256C9240B1256C91256BB74FF7804AD
:10565000F0A3D8FC7C00ECF874C01254EA3406F5D0
:1056600083E0C0E01256D4D0E0F00CECC3940540C7
:10567000E57C00ECF8747D1254EA3403F583E0C055
:10568000E012542124E5F582E439F583D0E0F00CF2
:10569000ECC3940840DD900395E004F064017019B8
:1056A0008E828F83E0900397F0800E0CECC39403FE
:1056B00050030255017A007B008041246AF582E4A0
:1056C0003BF58322125453EA22F582EB3401F58331
:1056D000E4F0EA22125425245DF582E439F58322B0
:1056E000F08A828B83A3A3A3A3A322F582E43BF5D4
:1056F00083E4F0A3F0EA2274041217B77F040218BF
:10570000E3C082C083EA2403F582E43BF583E060D2
:1057100008E4F0900396E014F0900395E014F07024
:105720000690039774FFF08A828B83A3A3E4F09022
:1057300006C5E0700D900396E064017005790012D3
:105740000DBF024A56C082C0837A00EAF875F00D98
:10575000A4C8ABF02B12577CA3E412530AA3A3A353
:10576000A3A3A3F00AEAC3940340E0900395E4F0F6
:10577000A3F0A374FFF075E1F1024A56F97495287D
:10578000F87403125A95A3A3A32274F51218117585
:105790000800750900750A00A80A1257EA8E828F60
:1057A00083A3A3A3E0602BE5084509601D8508825B
:1057B000850983125801121A371257FD12167712F3
:1057C000248774041217B7E97008EEF8EFF9880817
:1057D0008909050AE50AC3940340BD850882850945
:1057E00083A3A3A3A3E0F902518BE875F00DA4C82D
:1057F000AAF02AF9749928FE740339FF228E828F49
:1058000083E0F8A3E0F5838882A3A32274F712183B
:105810001178FF79FF7E00EEFC75F00DA4CCAFF09F
:105820002FFD74992CFC74033DFD8C828D83A3A302
:10583000A3E06040EC2473F582E43DF583E0FF745F
:10584000FF68700374FF69700774016F701C800D2E
:1058500074016F700DEC24791258895017EC24797B
:10586000800BEC242E125889500AEC242EF582E489
:105870003D124FEF0EEEC39403409CC3EA98EB99A0
:105880004004E8FAE9FB025119F582E43DF583C3CF
:10589000E098A3E0992274F01218118C088D098900
:1058A0000EEA2AF50AEB33850A0CF50D900396E013
:1058B000F8E9C39850117AFF7BFF120B8B8A0A8B91
:1058C0000BAE0AAF0B8017E96010A3E0F875F00D7E
:1058D000A4C8AAF02A12599A8004AE0CAF0D900306
:1058E00096E0F50F8E0A8F0B7403780A12177FA8C3
:1058F0000FC3E50A98E50B94005003025986850C06
:105900000A850D0BE50825E0F508E50933F509AC36
:105910000AAD0B8007EC2402FCE43DFDC3E5089CC6
:10592000E5099D404FC3EC9EED9F402FECF8EDF94B
:10593000EEFAEFFB1217168A0C8B0DA80CA90DE8D6
:10594000496006EEFAEFFB80047A007B00EC98F8E1
:10595000ED99F9E82AFCE93BFD8019E50EC3950FA6
:105960005012EEF8EFF9ECFAEDFB1217168B0DEA78
:10597000450D70A1C3EC950AED950B4009C3E508F0
:105980009CE5099D50067AFF7BFF8009ECFAEDC388
:1059900013FBEA13FA7F080218E3F974C728F582AB
:1059A000740339F583E0FEA3E0FF2274F4121811AA
:1059B00074FC1217A1EAFEEBFFEE2463F508E43F46
:1059C000F5098016AA08AB09120BD31212E790064C
:1059D000C6E004F09006C7E004F0850882850983DC
:1059E000125E1770DF9006C7E060358E828F83A34A
:1059F000A3A3A3E0851882851983F0A3E4F09006A1
:105A0000C7E0F874021217EDE8F0A3E4F074021294
:105A10001807AA18AB19790112088B9006C7E4F091
:105A2000EEFAEFFB120B79EEFAEFFB120CDB0256EB
:105A3000F774F7121811EAFEEBFF8E828F83A3A38F
:105A4000A3A3E0FA7B00120861EEFAEFFB120B97BA
:105A5000120CBD025119C082C0837A00EAF875F0B9
:105A60000DA4C8ABF02BF9749928F87403125A9559
:105A7000E06016E8246EF582E439F583E0600A12EE
:105A80005A9FE07004790180090AEAC3940340CC6C
:105A90007900024A5639F988828983A3A3A322E8B0
:105AA000125AA422246AF582E439F58322C082C006
:105AB00083E490037D7808F0A3D8FC90037D040272
:105AC00046C174F712181174FC1217A1851882854B
:105AD0001983E4F0A3F0A3F0A3F0120BEBE985180F
:105AE00082851983F0120BEB74011217EDE9F012A5
:105AF0000BEB74021217EDE9F085188285198312F9
:105B0000167774041217B702511974F6121811EAB5
:105B1000240D125B66EC2403F8E43DF9880889093A
:105B2000EC2407F8E43DF9E8FCE9FD8C828D831252
:105B30004FF1850882850983E0FAA3E0FB1217166E
