:020000040000FA
:0600000002011A0223D1E7
:03002B00022A7531
:030053000224473D
:03006B00022A4323
:10008300022227E5C754F84401F5C779012200008D
:100093000080FB120086B90003020104E479217891
:1000A30008B800028004F709D8FCE479297802B87B
:1000B30000028004F709D8FCE49002817894791354
:1000C3008002F0A3D8FCD9FA781A90014A7A01BACF
:1000D30000028007E493A3F608DAF97A147B1590FB
:1000E300014B78DC79048015E493A3AD82AE838A57
:1000F300828B83F0A3AA82AB838D828E83D8E9D9C6
:10010300E77582117583CE740312012C7582917584
:100113008300740012012C75D00075813F7518811E
:10012300751902759F00020096C09FF59FE473D076
:100133009F22D083D082C09FE493C0E0740193C018
:10014300E0740293F59F22010A416363656C2045C5
:100153006E61626C650000021400416363656C208C
:1001630052616E67650000101010416363656C2077
:10017300582D436F6F7264696E617465000041634B
:1001830063656C20592D436F6F7264696E6174658A
:100193000000416363656C205A2D436F6F7264697D
:1001A3006E6174650000023990010000069002350B
:1001B30090010000141502539003000083020221F2
:1001C3009001000015150235900100002315023F30
:1001D300900100002415022190010000261502352C
:1001E300900100003315026790000000840202238F
:1001F30090030000870202219001000036150235AA
:100203009001000034150241900000008502022392
:100213009003000089020221900100004A15023573
:10022300900100003515024390000000860202236E
:10023300900300008B020221900100005E15110162
:1002430099010F12640400AD270111310401023931
:10025300900100000C900235900100000F16024738
:100263009001000010160223900300009502023350
:100273009001000018160225900100001116FF00DE
:1002830000B4000028002800283075A000A000A0BA
:1002930000A00000080008E001F0001000100010AA
:1002A300001000100010005000500050001000100B
:1002B30000D0070000000000000F0001000500301F
:1002C3007507001000010081FF00000000FFFFFF21
:1002D300A207C007A807E407FF02020208025000B2
:1002E300A0000000E80302399001000018900235D5
:1002F30090010000A516022790010000D5020235E7
:1003030090010000A616022990010000EB020235BD
:1003130090010000A716022B90010000ED020235A8
:1003230090010000A816022D90080000EE0202358D
:1003330090010000A916022F90010000AA16FF01E8
:1003430000FF200239900100001B9002359001004C
:10035300000E1702319000000000000223900300FA
:10036300001C031700920E920E920E920E920E92A2
:100373000E920E920E920E920E920E920E920E7A92
:10038300118C117411020202020202020202010D17
:1003930000000010010239900100000F9002359017
:1003A30001000051170263900100005707023590C6
:1003B3000100005217025790010000138F0235907D
:1003C3000100005317025590010000F78E0235908B
:1003D3000100005417025190010000A38E023590D2
:1003E3000100005517024F90010000B58E023590B1
:1003F30001000056170269900100007F8E023590BC
:100403000100005717024D90010000918E023590B4
:100413000100005817024B90010000058F02359030
:1004230001000059170249900100005A1701E8031F
:100433000577100A0B094B6579666F6264656D6F0A
:100443000201050702031802180418544920424CFC
:1004530045204B6579666F620000000000000000D4
:10046300381400003E144414FFFFFF0001307503ED
:100473000201060000000000000000000000000070
:10048300000000000000000000000000000000FF6A
:10049300FF0600800CE8030A0412023990010000F1
:1004A30015900235900100006318025F900300006D
:1004B3000C150239900100001E90023590010000D6
:1004C3006418025F900200000D15023990010000CC
:1004D3000990023590010000651802619001000047
:1004E3000E150223900300000F15104B6579205061
:1004F300726573732053746174650002399001004F
:10050300001290023590010000B618026D900000B1
:10051300001115022390030000121502219001001F
:1005230000B718120135AD91031201357092031211
:1005330001358D9203120135C493031201350F94D3
:1005430003120135C3940312013510A903120135B7
:1005530073A90312013594A9031201353FAA0312AB
:100563000135D2AA0312013599AB031201352C7F51
:10057300001201354D7F00120135DE7F0012013577
:1005830057A5031201356AA5031201359BA5031272
:100593000135D5A5031201352EA60312013575A623
:1005A30003120135BDA603120135ECA60312013572
:1005B3001BA70312013552A70312013599A7031292
:1005C3000135B2A70312013507A80312013520A88C
:1005D300031201356EA803120135A8A803120135D1
:1005E300EDB902120135F0BA0212013529BB02122C
:1005F30001354CBB021201355EBB021201359CBBB7
:100603000212013518BC02120135E0BC0212013599
:1006130002BD0212013599BD02120135EBBD021272
:1006230001351CBE0212013529BE0212013593BEEB
:1006330002120135EABE02120135EDBE0212013586
:1006430026BF0212013529BF0212013533BF021240
:10065300013587BF02120135C8BF02120135FBBF46
:100663000212013538C0021201353AC102120135B6
:10067300DEC10212013547C20212013585C20212E0
:100683000135B89503120135E095031201350D9636
:1006930003120135459603120135A3960312013562
:1006A300EF960312013556970312013596970312FD
:1006B3000135D39703120135019803120135AB9825
:1006C30003120135B59803120135C298031201359F
:1006D300F598031201350199031201351999031293
:1006E300013523990312013536CB0312013544CB6F
:1006F300031201355CCB0312013573CB03120135B1
:10070300AFC80112013559C9011201356CCA011272
:100713000135E8CA0112013506CC0112013542CC7C
:1007230001120135DDCC01120135C1CD01120135B4
:100733008DCE011201351BD0011201358CD001126F
:10074300013546D10112013538D20112013578D273
:10075300011201352CD3011201355ED3011201358B
:1007630054D50112013596D501120135B4D50112C4
:1007730001351AD601120135E9D601120135ADD77B
:1007830001120135CCD90112013551DA02120135BA
:100793003BDB02120135E6DB0212013537DC0212C4
:1007A3000135E7DC0212013558DD021201353DDE69
:1007B3000212013571DE021201356ADF02120135C0
:1007C300A7DF0212013583E002120135C2E00212F3
:1007D3000135DEE00212013581B90312013505BA94
:1007E3000312013530BA031201354ABB0312013536
:1007F3009C9D03120135B29D03120135D09D031256
:100803000135E19E03120135EB9E0312013516A05B
:10081300031201350DA1031201357AA1031201352B
:100823003FE10212013575E202120135ACE2021218
:10083300013503E30212013518E5021201351BB637
:1008430001120135A7B6011201350BB801120135AA
:1008530017B80112013552B801120135C1B801129E
:100863000135CAB901120135D3BA011201359ABB58
:1008730001120135F7BC0112013515BD0112013515
:1008830032BD01120135DFBD011201355CBE01121B
:10089300013584BE011201354EC10112013553C128
:1008A300011201356CC301120135BAC301120135BE
:1008B3002AC40112013568C40112013544C501126D
:1008C300013504C60112013550C60112013553C664
:1008D3000112013597C601120135DFC60112013538
:1008E3001EC70112013540C70112013574C7011239
:1008F3000135D7C70112013552EC0212013560EC04
:1009030002120135B3EC02120135D2EC02120135A9
:1009130017ED021201355BEE02120135F6EE0212FB
:1009230001353AEF0212013564EF02120135D3EFBC
:100933000212013519F00212013590F0021201354D
:1009430041F102120135AC2A00120135BC2A001212
:1009530001355D2B00120135B92B00120135762CC0
:1009630000120135922D00120135C42D00120135FC
:10097300F32D00120135A02F00120135173200129A
:10098300013587340012013579350012013572368D
:10099300001201357938001201356D3B0012013523
:1009A3009C3C00120135A03E00120135B03F0012FD
:1009B30001353F41001201353042001201357E42BC
:1009C30000120135ED4200120135114300120135C9
:1009D3006243001201350348001201350449001235
:1009E3000135654900120135904900120135564A17
:1009F30000120135068903120135108903120135EE
:100A0300558903120135698903120135F9890312E6
:100A13000135328A031201356D8A03120135968A34
:100A230003120135EA8A03120135FF8A03120135E5
:100A3300218B03120135368B031201354A8B0312C6
:100A430001355F8B03120135998B03120135C58B79
:100A530003120135FD8B031201359D8C0312013501
:100A6300E08C031201350A8D03120135358D031213
:100A7300013555C503120135FEA502120135E1A664
:100A8300021201355CA70212013597A70212013544
:100A9300E8A80212013576A90212013508AC021248
:100AA3000135BAAC02120135C6AD0212013539AFB8
:100AB3000212013592AF021201355D8D0312013529
:100AC300A08D03120135248E03120135FB9003120E
:100AD30001350DB503120135BFB503120135BBB6A0
:100AE30003120135FAB60312013554B70312013567
:100AF30053BD03120135B6BD0312013553BE0312B4
:100B0300013588BE03120135B8BE03120135F3BEA9
:100B13000312013513BF0312013512F60212013518
:100B23009EF6021201355DF70212013575F80212C5
:100B330001358FFA02120135A87300120135CD7306
:100B4300001201359A74001201356E7500120135D9
:100B5300DB75001201351B7600120135B7760012E2
:100B63000135EB7700120135C6780012013525797E
:100B730000120135B179001201351F7A00120135D7
:100B8300AB7A00120135F17A00120135637B001252
:100B93000135F57B00120135967C00120135B67CD8
:100BA30000120135FE7C00120135477D001201352C
:100BB300637D00120135897D00120135037E001229
:100BC3000135117E00120135A07E00120135097F27
:100BD30000120135C6FA021201354BFB0212013530
:100BE3008DFB0212013571FC02120135DEFC02128B
:100BF300013522FD0212013566FD0212013593FD16
:100C030002120135BBFD02120135F3FD021201355B
:100C130031FE0212013558FE02120135D2FE0212D4
:100C230001351CFF0212013571A30112013519A50B
:100C33000112013546A7011201359AA701120135A8
:100C4300C5A70112013597A801120135DBA80112CE
:100C530001351FA90112013532A90112013573A90A
:100C630001120135A0A901120135EEA901120135C6
:100C73002FAA011201355DAA01120135B0AA011292
:100C8300013547AB0112013531AE0112013547B0D1
:100C93000112013585B00112013518B20112013577
:100CA3005DB201120135CFB20112013520B3011239
:100CB30001355AB30112013564B301120135B1B4E0
:100CC30001120135E7B501120135F8B501120135FD
:100CD3003BB002120135BAB002120135B3B60212AB
:100CE3000135B9B7021201352CB902120135C3B966
:100CF30002120135465F001201358F5F0012013584
:100D0300BC5F00120135EE5F00120135FB5F00127C
:100D13000135076000120135196000120135F460D6
:100D2300001201355261001201358761001201354D
:100D3300BE62001201350B63001201352F630012EE
:100D430001359F630012013560640012013523658C
:100D5300001201359165001201354E66001201350E
:100D6300616600120135DF660012013572670012F9
:100D73000135996700120135016800120135526887
:100D830000120135A76800120135426900120135CE
:100D9300ED6900120135996A001201350B6B0012DF
:100DA30001355F6B00120135BF6B00120135EF6B2C
:100DB30000120135856C00120135AE6D001201354C
:100DC300F66D00120135136E00120135326E0012FA
:100DD3000135616E00120135766F00120135FC6F2B
:100DE30000120135217000120135367000120135F1
:100DF300A97000120135EA70001201350672001263
:100E03000135A77200120135F572001201355F73C7
:100E130000120135787300120135A1F60112013574
:100E2300F5F60112013501F701120135CBF7011275
:100E33000135F8F70112013526F80112013592F850
:100E430001120135C8F80112013501F9011201350A
:100E530019F9011201356EF90112013587F90112F1
:100E63000135CCF901120135DFF901120135F9F928
:100E7300011201350FFA011201352DFB0112013563
:100E830058FC0112013542FD0112013533FE0112F6
:100E93000135E97F00120135888D02120135BA8DC3
:100EA30002120135809102120135DB9202120135E3
:100EB300A19302120135209502120135F795021212
:100EC3000135469602120135609602120135A2964B
:100ED30002120135AD9602120135F4960212013564
:100EE300FD9602120135A99702120135829802126A
:100EF3000135C998021201353199021201357399EE
:100F030002120135A19902120135DE99021201354F
:100F13007290011201353894011201353E94011289
:100F23000135E29A01120135369F011201351FA3E3
:100F33000112013584A103120135FAA1031201350F
:100F430010A203120135A0A203120135DDA2031280
:100F5300013517A30312013551A303120135C4A3AD
:100F63000312013505A4031201350EA40312013542
:100F73001AA40312013539A40312013563A4031221
:100F8300013578A403120135A0A40312013502A58B
:100F93000312013529A50312013553F1021201355C
:100FA30066F10212013580F102120135ADF1021230
:100FB3000135F3F10212013526F20212013564F212
:100FC30002120135C9F202120135DEF202120135B5
:100FD300E9F202120135F6F2021201350DF30212A3
:100FE30001351BF30212013526F30212013532F3E8
:100FF3000212013545F30212013550F30212013595
:1010030073F30212013517F40212013527F40212A9
:10101300013541F4021201355EF40212013579F40F
:10102300021201359EF402120135A9F402120135B0
:10103300BEF402120135D2F40212013533F5021265
:10104300013539F5021201353FF50212013545F537
:10105300021201355DF50212013590F502120135D8
:101063000580021201359C8002120135348102127F
:1010730001352482021201355B82021201356E8230
:1010830002120135DC820212013577840212013526
:101093009E840212013540850212013575850212C4
:1010A3000135868502120135FF850212013520863E
:1010B300021201353886021201359087021201357A
:1010C300998902120135E98B02120135EC8C021267
:1010D30001353B8D02120135D9D901120135D6DA1A
:1010E30001120135C1DB01120135CBDB01120135E0
:1010F300EDDB01120135F9DB011201354BDD011284
:1011030001357ADD01120135AADE01120135ECDE6B
:101113000112013518E001120135EEE0011201352B
:1011230040E1011201359FE101120135D6E10112BF
:10113300013511E201120135ACE501120135C5E5B6
:101143000112013547E60112013555E60112013559
:10115300AAE601120135B8E60112013525E70112AD
:10116300013597E701120135DDE701120135EE9AEA
:1011730002120135109B02120135FA9C021201354D
:101183009FA002120135E2A102120135BCA2021294
:10119300013521BF0312013546BF03120135B7BF25
:1011A30003120135ABC202120135B4C2021201357A
:1011B300BDC202120135EEC3021201350DC6021281
:1011C300013543C6021201357DC602120135B3C68D
:1011D30002120135EDC60212013521C70212013593
:1011E3004DC70212013596C702120135D0C702124C
:1011F300013518C8021201356EC802120135A3C8A1
:1012030002120135FEC80212013538C90212013536
:1012130089C902120135BFC902120135F9C9021287
:10122300013527CA021201354ACA02120135BFCC61
:1012330003120135EBCC0312013546CD0312013500
:1012430050CD0312013560CD031201356CC7031273
:101253000135C3C703120135DBC703120135F9C7D3
:101263000312013514C80312013548C803120135AE
:1012730056C80312013580AF03120135A7AF03121D
:101283000135D1AF0312013569CE03120135C24ACC
:10129300001201352B4D00120135E24E00120135CB
:1012A3003F4F001201353C5000120135C45000126B
:1012B30001355051001201357551001201356A5440
:1012C30000120135E05400120135CC5500120135EE
:1012D300065600120135465600120135E657001234
:1012E30001353B5800120135885800120135F65874
:1012F300001201351D59001201353759001201350D
:101303004D5A001201355D5A00120135E35B00129C
:101313000135035C00120135395C00120135A45D0F
:1013230000120135E35D00120135215F0012013522
:10133300858403120135DD840312013525860312EA
:101343000135948603120135438703120135628701
:1013530003120135B68703120135F48703120135F1
:1013630003CC0312013514CC03120135B4CC0312A0
:101373000135B3CE03120135F2CE03120135EDFF71
:101383000112013557CA0312013567CA0312013529
:101393007CCA0312013530CB0312013569C603122F
:1013A3000135EDC60312013553C70312013529C4B4
:1013B3000312013550C403120135A6C403120135CB
:1013C300B9C4031201350AC50312013549C5031215
:1013D30001354CC503120135B19903120135C59985
:1013E300031201353E9A03120135139B0312013593
:1013F300E59C031201354A9D03120135899D0312B1
:101403000135F87F0012013579BB03120135EFBCBA
:101413000312013550BD03120135AED2021201355C
:101423007ED4021201352ED602120135F0D60212F5
:10143300013591D702120135B0D702120135EBD82D
:10144300021201352AD90212013572D9021201356D
:1014530066C9031201358FC903120135B8C90312D6
:101463000135D0C90312013512CA03120135DFE673
:1014730002120135E9E60212013529E702120135AC
:1014830072E702120135ACE70212013502E80212DB
:10149300013521E8021201352AE8021201357BE801
:1014A30002120135A4E802120135B9E8021201352E
:1014B30029E902120135B7E902120135FBE90212EB
:1014C300013523EA02120135A2EA02120135E5EAE7
:1014D3000212013522EB0212013534EB02120135FF
:1014E30053EB021201355CEB0212013526EC0212BA
:1014F30001358BC203120135DCC20312013565C30A
:1015030003120135CBC3031201354EB20312013569
:1015130078B2031201356DB3031201359CB3031284
:10152300013522B4031201356FC8031201355CFF84
:10153300021201357FB703120135B5B70312013526
:10154300EEB70312013547B9031201356ACD031211
:10155300013580CD031201358ACD03120135E0CD6B
:1015630003120135D8CA0212013595CB0212013597
:10157300D0CB02120135F8CB021201355ACC02123C
:101583000135A6CC0212013511CD021201358DCDE4
:101593000212013589CE0212013510D00212013533
:1015A30093D002120135F7D0021201350ED1021287
:1015B300013504D20212013550D2021201350080E6
:1015C30003120135158003120135C580031201355D
:1015D3000581031201351E81031201355181031266
:1015E30001359E8103120135D28103120135148224
:1015F3000312013512840312013578840312013575
:1016030066E8011201351DEC01120135AFED01123F
:10161300013506EE0112013525EE01120135A3EE67
:101623000112013535F00112013519F101120135AD
:101633002AF501120135FEF5011201355AAC0312E8
:10164300013503AD0312013520AD03120135B8ADE9
:1016530003120135E3AD0312013575AE03120135F3
:10166300D7C0031201353EC103120135A3C10312D2
:1016730001352AC203120135FCCE03120135BBFF2B
:101683000212013542CF03E066701008A3E06670D2
:101693000A08A3E066700408A3E06622C3E796087D
:1016A30009E7960809E7960809E79622C3E0960832
:1016B300A3E09608A3E09608A3E09622C008C3E03F
:1016C30096F50808A3E096420808A3E096420808A6
:1016D300A3E09645087001D3D00822080808EAC0A1
:1016E300E0EBC0E086F0E7A4FA180986F0E7A42A45
:1016F300FA180986F0E7A42AFA180986F0E7A42A5B
:10170300FA1986F0E7A4FBE5F02AFA190886F0E750
:10171300A42BFBE5F03AFA190886F0E7A42BFBE5C6
:10172300F03AFA18180986F0E7A4C5F02BFBE43A5F
:10173300FA1908E7C5F0C6A426F6E5F03BFBE43A40
:10174300FA1886F0E7A4F6E5F00826F6E43B08F677
:10175300E43A08F6D0E0FBD0E0FA22E4CFC0E0E4BC
:10176300CEC0E0E4CDC0E0E4CCC0E075F020E626D6
:10177300F608E633F608E633F608E633F6181818E3
:10178300EC33FCED33FDEE33FEEF33FFC3EC97098F
:10179300ED9709EE9709EF97191919400FFFEC9789
:1017A300FC09ED97FD09EE97FE191906D5F0BFEC7C
:1017B300F709EDF709EEF709EFF7191919D0E0FC6E
:1017C300D0E0FDD0E0FED0E0FF2212183518181843
:1017D30012175E121824191919221218241919192B
:1017E300080808E618181820E7E012175E121835E3
:1017F30018181822090909E719191920E7DC08083C
:1018030008E618181820E70302175E12183518188F
:101813001812175E121835181818121824191919E6
:1018230022E4C397F709E497F709E497F709E497E4
:10183300F722E4C396F608E496F608E496F608E47D
:1018430096F6226017080808C6A2E713C618C6133F
:10185300C618C613C618C613C6D5E0E92260160813
:101863000808C6C313C618C613C618C613C618C6B7
:1018730013C6D5E0EA227009080808226016181872
:1018830018C6C333C608C633C608C633C608C6332C
:10189300C6D5E0EA22E627F60809E637F60809E6A0
:1018A30037F60809E637F622E026F608A3E036F60F
:1018B30008A3E036F608A3E036F622E026F008A3F4
:1018C300E036F008A3E036F008A3E036F022C3E6E2
:1018D30097F60809E697F60809E697F60809E697E2
:1018E300F622C3E096F008A3E096F008A3E096F092
:1018F30008A3E096F022E056F608A3E056F608A304
:10190300E056F608A3E056F622E056F008A3E056A8
:10191300F008A3E056F008A3E056F022E0F608A38F
:10192300E0F608A3E0F608A3E0F622E6F008A3E653
:10193300F008A3E6F008A3E6F022E0FAA3E0FBA395
:10194300E0FCA3E0FD22E0F8A3E0F9A3E0FAA3E0C2
:10195300FB22E8F0A3E9F0A3EAF0A3EBF022CAC06C
:10196300E0E6F0A308DAFAD0E0FA22CAC0E0E0A386
:10197300C582CCC582C583CDC583F0A3C582CCC542
:1019830082C583CDC583DAE6D0E0CA22C3E498F8E2
:10199300E499F91219D08026C3E49AFAE49BFBE98F
:1019A30020E7E91219D0E498F8E499F922C3E498FE
:1019B300F8E499F91219D0E498F8E499F9C3E49A90
:1019C300FAE49BFB22EB20E7CFE920E7E0B9001024
:1019D300BB0008E88AF084F8AAF022E4FBC8FA22E4
:1019E300EB70227B10C833C8C933C9335007C39A7D
:1019F300C3DBF280069A50012ADBEAC833F4C8C974
:101A030033F4C9FA2275F008E4C833C8C933C933BB
:101A1300C99AC99B5004C92AC93BD5F0ECFBC8330A
:101A2300F4C8E4C9FA22600D08C6A2E713C618C6B3
:101A330013C6D5E0F322600C08C6C313C618C61339
:101A4300C6D5E0F422700422600D18C6C333C6085D
:101A5300C633C6D5E0F41822251810AF08F5184090
:101A63000C15198008F51840021519D2AF2200C0D1
:101A7300D0251810AF08F518500C05198008F51873
:101A830050020519D2AFD0D0222518F58210AF0825
:101A9300F518400C15198008F51840021519D2AF36
:101AA300851983222518F582E43519F58322251833
:101AB300F8E43519F9222518FAE43519FB2225181B
:101AC300FCE43519FD22E4732518C582C0E0E5194D
:101AD30034FFC583C0E0E518C3958224F810AF082E
:101AE3008583198582188008858319858218D2AF6A
:101AF300CEF0A3E520F0A37808E608F0A3DEFAEF22
:101B0300F0A3E58124FAF8E608F0A3E608F0A3E6DB
:101B130008F0A30808E608F0A3E608F0A31581156A
:101B230081D0E0FED0E0F8158115811581E8C0E091
:101B3300EEC0E0222518C582C0E0E51934FFC58355
:101B4300C0E0E518C3958224F910AF088583198591
:101B530082188008858319858218D2AFCEF0A3E559
:101B630020F0A37808E608F0A3DEFAEFF0A3E581FE
:101B730024FBF8E608F0A3E608F0A30808E608F05B
:101B8300A3E608F0A315811581D0E0FED0E0F81597
:101B9300811581E8C0E0EEC0E022851983851882B3
:101BA300E0A3FEE0A3F5207808E0A3F608DFFAE05F
:101BB300A3FFE0A3C0E0E0A3C0E0E0A3C0E0E0A394
:101BC300C0E0E0A3C0E010AF0885821885831980C8
:101BD30008858218858319D2AFD083D0820201325F
:101BE300851983851882E0A3FEE0A3F5207808E039
:101BF300A3F608DFFAE0A3FFE0A3C0E0E0A3C0E0A0
:101C0300E0A3C0E0E0A3C0E010AF0885821885839D
:101C1300198008858218858319D2AFD083D0822298
:101C2300C0D02518C582C0E0E51934FFC583C0E0E4
:101C3300E518C3958224F310AF08858319858218AC
:101C43008008858319858218D2AFC8F0A3E9F0A371
:101C5300EAF0A3EBF0A37908E709F0A3D8FAECF0D4
:101C6300A3EDF0A3EEF0A3EFF0A3D0E0F0A3D0E058
:101C7300F0A3D0E0F0A3E520F0A3E5F0F0A32285E4
:101C83001983851882E0C0E0A3E0F9A3E0FAA3E09A
:101C9300FBA37808E0F608A3DFFAE0FCA3E0FDA3CA
:101CA300E0FEA3E0FFA3E0C0E0A3E0C0E0A3E0F513
:101CB300D0A3E0F520A3E0A3F5F010AF08858319C6
:101CC3008582188008858319858218D2AFD082D087
:101CD30083D0E0F8D0E0327404800674028002748A
:101CE30001C0E0F404121A8CD0E0121961227404CA
:101CF300800474028000CCC0E0EDC0E0E518C39C12
:101D0300CCAD1950011D10AF068C188D1980068CAF
:101D1300188D19D2AF12196ED0E0FDD0E0FC22D09D
:101D230083D082E9C0E0E493A3C386F0C5F095F0C5
:101D3300F908E493A386F0C5F095F0700BE493A340
:101D4300C3994005E9048002A3E475F002A4258247
:101D5300F582E5F03583F583D0E0F9E493A3C0E0A1
:101D6300E493C0E022D083D082ECC0E0EDC0E0E495
:101D730093A3FCE493A3FDED4C600D121DB4EC247E
:101D8300FFFCED34FFFD80EFE493A3FCE493A3FD9C
:101D9300ED4C600D121DF3EC24FFFCED34FFFD80D0
:101DA300EFD0E0FDD0E0FCE493A3C0E0E493C0E017
:101DB30022C0E0C3E49396087401939618400FE49D
:101DC3009366700808740193661870007019A3A3D2
:101DD300C3E49396087401939618A3A3400DD0E02F
:101DE300D0E0D0E0021DA4A3A3A3A3A3A3D0E02229
:101DF300C0E0C0F088F0E49366700808740193664D
:101E0300187000A8F0A3A3700BD0F0D0E0D0E0D0FE
:0B1E1300E0021DA4A3A3D0F0D0E02249
:101E200074F6121B37EAFEEBFF8C088D09EE2434A2
:101E3000F8E43FF9E8FCE9FD121F52E0FAEE24371E
:101E4000F582E43FF583E0F88508F0A4C885F00A40
:101E50008509F0A4250AF9EA28F8E439F97A257BFE
:101E6000001219D0EA8C828D83F0FA131313541FD9
:101E7000F8EE28F8E43FF9E8245DF582E439F583CB
:101E8000E0C0E074075AF8D0E0B800028004C31341
:101E9000D8FCA2E05003EA8020EE2436F582E43F2D
:101EA000F583E0F5F0EA84A8F0EE28F8E43FF9E8DD
:101EB0002438F582E439F583E0F97F03021BE374EB
:101EC000F5121B37EAFEEBFFEE2434F582E43FF512
:101ED00083E0C0E0121F52D0E0F08E828F83A3A374
:101EE000A3A3A3E0FAA3E0FB8E828F83A3A3A3A303
:101EF000A3A3A3E0C39AF508A3E09BF509EE247F12
:101F0000F8E43FF9880A890B8882F583E064017060
:101F10002CEE2480F582E43FF583EA2401F8E43BCB
:101F2000F9E0687003A3E06970137CC77D04EEFAE2
:101F3000EFFB120DAE850A82850B83E4F0AC08AD91
:101F400009EEFAEFFB121E20E9F9122A357F04028E
:101F50001BE3EE2435F582E43FF58322C082C08383
:101F6000851882851983E0F8A3E0F9C3EA9CEB9D0C
:101F70005010C3EC98ED99401BC3EA98EB995014AC
:101F8000800EC3EA98EB994007C3EC98ED994004A2
:101F9000790180027900D083D08222EAC39CFAEBD7
:101FA0009DFB2274ED121B3790038CE064086005E2
:101FB000E06407702C9061C8E060269003BAE0F8F6
:101FC00074FF68601CE875F00BA4C8AAF02AF974C5
:101FD000BC28FE740339FF8E828F83A3A3A3E07015
:101FE00005790002213CEE2468F50EE43FF50F90E0
:101FF0006060E0850E82850F83F0751037751105DE
:10200000750800750900E5D914F50AE5D95403F5FA
:102010000B601FEE2483F50CE43FF50D7403650B94
:102020006059E50A6017EE2467F582E43FF583E026
:10203000700B793DEEFAEFFB120DDE80A4900532B5
:10204000E064016023850C82850D83E060047A04DE
:1020500080027A00E50AC39AFA95E0FB120C3A8AEC
:10206000088B09EA45097006121042021FE1850C2F
:1020700082850D83E070048A108B117A008014E54C
:10208000D9C0E0EAF8E51028F582E43511F583D0EF
:10209000E0F00AEAC3950A40E6850C82850D83E0EC
:1020A000602874FC250AF50A7810121CDEAC0AA917
:1020B0000BEEFAEFFB120E8C7402121A71E9700A21
:1020C000AA08AB091214F80220327403650B60549D
:1020D000850A0C750D00780C121CDEAC10AD11AA2F
:1020E00008AB09120E507402121A71850E82850F08
:1020F00083E0F87480687005750C7F8002880CE5B9
:102100000CF50D780D121CE2780B121CE2A90AAC3A
:1021100008AD099003BAE0FA7B00120A7274021249
:102120001A71801390038CE06408600BAC10AD1141
:10213000EEFAEFFB120F2212104E79017F0C021BF8
:10214000E374F3121B3774FC121A5BEAFEEBFF898F
:1021500009A2AFE433F508C2AFEE2463F50AE43F09
:10216000F50B8010AA0AAB0B120E081214F890049B
:10217000CEE004F0850A82850B83E0F8A3E0F9E85D
:1021800049602DE82402FAE439FBEA2402F50CE464
:102190003BF50D780C121CDE8A828B83E0FCA3E0F9
:1021A000F9EEFAEFFB120DFC7402121A71E960B439
:1021B0009004CEE0604D9004CFE0F89004CEE0C3F0
:1021C00098500C74026509703A9004D0E060348E27
:1021D000828F83A3A3A3A3E085188285198312228B
:1021E000137402121AA7E81222139004CDE028F00B
:1021F0007402121AC1AA18AB197901120AC6900406
:10220000CEE4F0E508A2E092AF7404121A717F06E2
:10221000021BE3F0A3E4F09004CEE0F822000000FB
:102220008521878522C622C0E074EB121C23A2AF51
:10223000E433F508C2AF759B00906182E0A2E050E4
:1022400030E591A2E0502A7591FE7401652170215C
:102250001223BA120F7C1223A8121CF11227DF746A
:1022600004121A71E9640170057901120FD6121F68
:10227000A3906182E0A2E5505DE591A2E55057751B
:1022800091DF90038CE064076005E06408702F1212
:1022900023BA74016521703E120F7C1223A8121C10
:1022A000F11227DF7404121A71E9640170057901D3
:1022B000120FD67901EEFAEFFB1221418018E0648B
:1022C0000D70139003AEE004F064287002E4F07A1D
:1022D00000E0F9121054906182E0A2E6400302236C
:1022E0007DE591A2E6400302237D7591BF90038CAA
:1022F000E064057008120F64120F708003120F6AF9
:10230000752100120FE2E990038DF07900120FD6CB
:10231000120D187A017B0090038BE0F91214C8901B
:102320007803E064427056900536E014F0704EC2B7
:10233000AF12233400782AD0E0F618D0E0F6E59FFB
:102340005407F87005750DFF8003750D7FC4C0E05C
:102350007829E6F50A08E6550DF50B740B780A1294
:102360001A39D0E0250AF8906270E0A2E740F8E858
:10237000C333906272F0906270E0D2E0F0906181BD
:10238000E0A2E35009E5E9A2E3500375E9F7A3E011
:10239000A2E75009E591A2E7500375917FE508A2F5
:1023A000E092AF7F08021C828E828F83E0F8A3E068
:1023B000C82416F582E438F583229003BAE0F87554
:1023C000F00BA4C8AAF02AF974BC28FE740339FFE4
:1023D00022C0E0C0D0C082C083906183E0A2E05000
:1023E00009E5BFA2E0500375BFFEE0A2E15009E598
:1023F000BFA2E1500375BFFDE0A2E25009E5BFA214
:10240000E2500375BFFBE0A2E35009E5BFA2E35031
:102410000375BFF7E0A2E45009E5BFA2E4500375DD
:10242000BFEFE0A2E55009E5BFA2E5500375BFDFAD
:10243000E0A2E65009E5BFA2E6500375BFBFD08316
:10244000D082D0D0D0E032C0E074F2121C23E5A7D5
:10245000A2E4500FE5A1A2E4500953A7EF75A1EF44
:1024600012249BE5A7A2E5500CE5A1A2E550065376
:10247000A7DF75A1DFE5A7A2E15009E5A1A2E15020
:102480000375A1FDE5A7A2E2500CE5A1A2E250066A
:1024900053A7FB75A1FB7F01021C8274F8121B3746
:1024A00075210190038CE0640670077A007B0012AE
:1024B0000F4CA2AFE433FED2AF900392E064017000
:1024C000187A207B0090038BE0F91215E27A207BCA
:1024D0000090038BE0F91214CE906182E0D2E6F016
:1024E000900533E0602185C6228016900391E06458
:1024F000017008E5C654F84405F5C653BEFC122227
:10250000207401652160E4EEA2E092AF7F01021B1E
:10251000E30000008E238F24858228858327851879
:1025200082851983E0CEA3E0CF852882852783EBBF
:10253000C9EAC8EDCBECCA75F010C3E833C8E9337B
:10254000C9EA33CAEB33CBC3EA9EF526EB9FF525E8
:10255000B35004AB25AA26EC33CCED33CDD5F0DA5D
:10256000AE23AF242274E9121B3774FA121A5BEA05
:10257000FEEBFF8C088D09120F8EEAF8EBF9ECFAEE
:10258000EDFB8E828F8312195590038CE024F7C3E4
:102590009405500675100102269C120EC28A0A8B01
:1025A0000BEA450B7003022699120F828A0C8B0DE1
:1025B000120F82EA650C7003EB650D60ECEEFCEF28
:1025C000FDAA18AB19120F88850A82850B83A3A375
:1025D000780C12191F908F7E780C1218F9851882CA
:1025E000851983781412191F908F7E78141218F9A8
:1025F000780C791412169F501F780C79141218D188
:10260000908F9E780C1216BF4047850C10850D11D7
:10261000850E12850F138045908F9E8514108515A9
:10262000118516128517137810790C1218D17810AD
:102630001216BF501C75100075110075120075132D
:1026400001781079141218D17810790C121898802A
:102650000C7510017511007512007513007409785E
:1026600010121879908FAE780C12191F7810790C0F
:1026700012175E90038CE06408600AE0640660054F
:10268000E064057020908FA278101216BF5016904B
:102690008FA678101218AB800C751000751100759C
:1026A0001200751300850882850983781012192E8F
:1026B0007406121A717F10021BE374F7121B371293
:1026C0000FA0900531E064017010906245E4F0A322
:1026D000F053F4F343FE0C5390F3120F3AE5C65453
:1026E000B84441F5C6E59E5447644170F890618551
:1026F000740FF090052FE0F47002A3E0602C7508D1
:102700000175090090052FE07808121A48E508F4D1
:10271000FAA3E0600814600A14600C800DEA52808D
:102720008008EA52908003EA52A079007F02021BDF
:10273000E374F7121B37E9FEEAFF74016E700C7A3E
:10274000807B0090038BE0F91214C8902AA4E493D4
:10275000F46008E493F9120CFA800953C6B8E59EB8
:10276000544770FA120F40900531E0640170031273
:102770000D3090052FE0F47002A3E0602B75080186
:1027800075090090052FE07808121A48E508FAA3A9
:10279000E0600814600A14600C800DEA4280800832
:1027A000EA42908003EA42A0120EC28A088B09A86E
:1027B00008A909E8496016E5E170FCE82414F582EF
:1027C000E439F583E0F874FF68600288E174016F12
:1027D000700A7A0190038BE0F912155802272C74C5
:1027E000F1121B378A088B098C0A8D0B908F7E782B
:1027F000081218F9740F121AA7780C12191F908F6B
:102800007E780C1218F97808790C12169F908F9E1A
:1028100050107808790C1218D178081216BF40149D
:10282000800E780C79081218D1780C1216BF50045B
:102830007901800279007F08021BE374ED121B37D7
:102840008A088B098C0A8D0B908F7E78081218F9F4
:102850007413121AA7780C12191F908F7E780C121D
:1028600018F9780C790812169F40117808790C1223
:1028700018D1AA08AB09AC0AAD0B802275100075FF
:1028800011007512007513017810790C1218D178A7
:10289000107908121898AA10AB11AC12AD137F0C66
:1028A000021BE3908F7E780812191F8A828B83782F
:1028B0000812190C7F04021BE374F5121B378C827B
:1028C0008D83780812191F8A828B8378081218E585
:1028D00012290DC3E098F0A3E0991228FF401E9042
:1028E0008FFA780812191F8A828B8378081218BE13
:1028F0008E828F83E02420F0A3E0344EF080A4F099
:102900008E828F83C3E09420A3E0944E22EA2404B5
:10291000F8E43BF9E8FEE9FF8C828D83A3A3A3A32F
:10292000E0F8A3E0F98E828F832274F5121B37E959
:10293000FE9004E9E0FAA3E0FBEE29F8E433F97431
:10294000D728F582748E39F583E02AF508A3E03B99
:10295000F5097808121CDE908FEA12193D12251431
:102960007402121A718A088B098C0A8D0B74107804
:1029700008121860AA08AB097F04021BE374F11265
:102980001B378A0C8B0D8C0E8D0F7411121AA71227
:102990001CF57411121AA7E02401F508A3E0340015
:1029A000F509E4F50AF50B780C79081216DE908F1C
:1029B000B2780812191F780C79081216DEAA0CAB2F
:1029C0000DAC0EAD0F1225147402121A718B09EAA8
:1029D000450960047A0180027A00EC2AFCE43DFD9E
:1029E0007413121AA7E0F8A3E0F9E8FEE9FFECF887
:1029F000EDF97A717B021219D088088909E4F50A89
:102A0000F50B8E828F83780812192EECF8EDF97A87
:102A1000717B021219D08A088B0974057808121A82
:102A2000488E828F83A3A3A3A3E508F0A3E509F052
:102A30007F08021BE3C082C083E9906000F0D0836E
:102A4000D08222C0E074F2121C23A2AFE433FED283
:102A5000AFE589A2E04006E589A2E150031213C662
:102A6000758900758900C2C5751A00EEA2E092AFA3
:102A70007F01021C82C0E0C0D0E8C0E0E9C0E0A94C
:102A8000A8D2AFC2C7751A00E9A2E7E433F8E9A2F9
:102A9000E792AFD0E0F9D0E0F8D0D0D0E032C2AFCA
:102AA00002000022FFFFFFFFFFFFFFFFC082C08385
:102AB000E990170DF0D083D08202013274F6121A19
:102AC000CBE99002FEF090035EE0F5087509007412
:102AD000027808121A48AA08AB091215409002FFA2
:102AE00012346F9002FF12385C606F90035EE075E5
:102AF000F003A4FAABF012154090031C12346F904F
:102B0000031C12385C700B9002FF12382D12154610
:102B1000804890031C1247C17AFF7BFF1213307A62
:102B20000080198A0875090074027808121A481280
:102B3000426974FF122C6FE4F0A3F00A90035EE088
:102B4000F8EAC39840DD790512095E9002FEE0F9CB
:102B500012084A7AE87B09120BDA02430C74F41269
:102B60001ACB8A088B09EB548060479002FEE0F98B
:102B70001214B08A0A8B0BAE0AAF0BEE4F602A8E8E
:102B8000828F83E064B0701A120970E960148E823B
:102B90008F83A3A3A3A3E0F9EE2405FAE43FFB127D
:102BA0000940EEFAEFFB12149EAA08E5096480FBC7
:102BB00080047A007B00022DBF74F2121ACB74FBE2
:102BC000121A5BEAFEEBFFEE4F60457403121AA780
:102BD000EEF0A3EFF0851882851983ECF0A3EDF0F9
:102BE0007402121AA7E9F0AA18AB19120844E9F501
:102BF0000870757413121AA7E0F50AA3E0F50BE547
:102C00000A450B60638E828F831231F8EE4F700598
:102C100075080280537A067B001215408A0C8B0DD2
:102C2000A80CA90DE8497005750813803B888289B6
:102C300083E4122C6FEEF0A3EF122D8BE50AF0A3C4
:102C4000E50BF0900302122D849003026017E0FC64
:102C5000A3E08003EAFCEBFD8C828D83122D84704F
:102C6000F38C828D83123E84A9087405024A41F0D8
:102C7000A31247A3A32274F2121ACB8908890C75F8
:102C80000D007403780C121A48850C0A850D0B9000
:102C90000301F09002FF123C8F122D82602E12155C
:102CA000467900801D890C750D007402780C121A8B
:102CB000489002FF1241288882F583A3A3E4F0A381
:102CC000F00990035EE0F8E9C39840D990035EE014
:102CD000FA850AF0A4CAA8F0850BF0A428FB121507
:102CE000408A0C8B0DAE0CAF0DEE4F7003022D78A9
:102CF00090035EE0FC850AF0A4CCA8F0850BF0A45C
:102D000028FD790012148C7C0080318D0C750D002B
:102D10007403780C121A488A828B83122D7D888264
:102D20008983E4F0122D8AA3A3F0A3F00DEDC395DF
:102D30000840D8EE250AFEEF350BFF0C90035EE04D
:102D4000F8ECC39850288C0C750D007402780C12A6
:102D50001A489002FF122D7DE82402500109FAE979
:102D6000FB8A828B83EEF0A3EFF07D0080BFE50845
:102D7000900301F0790080027913024A4412412C39
:102D8000F922A3A3123831EA4B22A31247A3A3A32B
:102D9000A32274F4121ACB7900EAA2E0501F75083E
:102DA0004075098F7808121CDE79107C047D007A4A
:102DB0000F7B171209587402121A71E9F980007F0B
:102DC00004021B9DC082C08390030212385C601C09
:102DD00088828983A3A3E06A7003A3E06B88828959
:102DE0008370E8A3A3A3A312382D80047A007B008C
:102DF000022AB574F2121ACB74FD121A5BEAFEEBCA
:102E0000FF851882851983E4F0A3F07402121AA7D3
:102E10007401F01238597014120B141215409003FB
:102E20000512346F1238597003022F8512356FEE78
:102E30002404F50AE43FF50B850A82F583E024FEBD
:102E4000603C24FC607424FE607E24FE7003022E2D
:102E5000D524FE7003022EE224FE7003022EEF241E
:102E6000FE7003022EFC24FE7003022F0924FC7066
:102E700003022F2A24FE7003022F42022F7E120B20
:102E800014900307EAF0A3EB122F9112058CE9606E
:102E900003022F7E900307121CF58E828F83A3A35B
:102EA000A3A3A31247C185088285098312382D1276
:102EB00009287402121A71022F7EAC18AD19EEFAAD
:102EC000EFFB120976022F4DAC18AD19EEFAEFFBAD
:102ED00012097C8078AC18AD19EEFAEFFB1209826A
:102EE000806BAC18AD19EEFAEFFB120988805EAC6E
:102EF00018AD19EEFAEFFB12098E8051AC18AD191E
:102F0000EEFAEFFB12099480447402121AB1880C95
:102F1000890D780C121CDE7402121AC1EEFAEFFB56
:102F200012099A7402121A718023AC18AD19EEFAC4
:102F3000EFFB1209A0E9F870167402121AA7E4F068
:102F4000803CAC18AD19EEFAEFFB1209A6E9F8E8DF
:102F5000602C8E828F83A3E064146022850A8285B0
:102F60000B83E0900307F085188285198312382DB2
:102F700090030812346FE8A3122F91120586EEFA1F
:102F8000EFFB1208FE7402121AA7E0F97403024A5A
:102F900041F07C077D038508828509831238312240
:102FA00074E8121ACB74FA121A5B7404121AA7ECA2
:102FB000F0A3EDF08A128B13EA2405F50EE4351325
:102FC000F50FEA2402F510E43513F511851082F5AA
:102FD0008312382D12067C8A0A8B0B7508007C033D
:102FE0007D0079007A077B0312148CE50E2402F52C
:102FF00016E4350FF5177402121AB1880C890D7892
:103000000C121CDE850E82850F83A3A3A3A3E0F51B
:103010000C750D00780C121CDEE50E2405F50CE491
:10302000350FF50D780C121CDE851682851783127C
:103030003B341208627406121A718A0C8B0DE50C6F
:10304000450D70030231C18020851882851983E007
:1030500088828983F00508851882851983A3E0C0DA
:10306000E0123202D0E0F00508E50A24FBFAE50B95
:1030700034FFFBC3E5089AE49B40030231C17E00A4
:103080007F00851282851383A3A3A3A3E0F50978AB
:1030900009121CE2E4F514F5157814121CDE7514FF
:1030A000047515037814121CDE900305121CF574C8
:1030B00009121AA7121CF5E50A24F9F9AC0CAD0D9A
:1030C00085108285118312382D1209D07409121AC5
:1030D00071E96003023162850E82850F83A3A3A389
:1030E000A3A3A3A3E0F8900304E0687075E0F514CF
:1030F0008E157814121CDE1247BE850E82850F8352
:10310000A3A3A3A3A3A3A3A312382D12148674020E
:10311000121A71E9604C90030812385C703BE4F5B8
:10312000147814121CDE7CFF7DFF790785108285E0
:10313000118312382D12093A7402121A7112386270
:103140007017850E82850F8312495B7404121AA7CB
:1031500012421C123B650231F5850C82850D8312EB
:1031600031F8A818A919881489157814121CDE746E
:1031700004121AA7121CF58516828517831234656E
:1031800012086E7404121A718A0C8B0DEE4F7003C4
:1031900002303E123202EE12320D123B1BEF12329F
:1031A0000DF8A3E03400F9E50C450D600302304949
:1031B0008882898374FFF0050812320274FFF005DB
:1031C00008E508601A1313543F123475120598E984
:1031D000600990030812382D1214F87900801685C2
:1031E0000E82850F8312495B7404121AA712421CC7
:1031F000123E84790A023AEEA3A3A3A3E0FEA3E061
:10320000FF22A808900308E028123B1B22F00508C3
:1032100008900308E0282274E8121ACB74FA121AF4
:103220005B7402121AA712346F7404121AA7ECF01E
:10323000A3EDF07402121AA7E02405123B04E0F596
:103240000CA3E0F50D7402121AA7E02402F510A3F6
:10325000E03400F511851082F58312382D12067CBA
:10326000750800750900EA24FCFEEB34FFFF8008B6
:10327000050CE50C7002050DA808C3EE98EF94004C
:103280005003023421A818A919880E890F780E124C
:103290001CDE851482851583A3A3A3A31247C51240
:1032A0001CDEE5142405F50EE43515F50F780E1235
:1032B0001CDE85148285158312346312086274063D
:1032C000121A718A0E8B0FEA450F7003023421EA3D
:1032D0002404F516E4350FF517851682F583E0F51D
:1032E0000CA3E0F50D8518828519831247C18A82E7
:1032F0008B83A3A3A3E0F985108285118312382D57
:10330000120850E9F50960030234217402121AA769
:10331000123B2BF5097809121CE2E4F512F513783B
:1033200012121CDE7512047513037812121CDE9043
:103330000305121CF57407121AA7121CF5EEF9AC5E
:103340000EAD0F85108285118312382D1209D074AD
:1033500009121A71E9F5096003023421E508703F8A
:10336000E4F50EF50F780E121CDE7CFF7DFF790967
:1033700085108285118312382D12093A7402121AAF
:1033800071123B51700D7404121AA712345879113E
:10339000023455900304E02402900308F080149056
:1033A0000308E0FA900304E0790024025001096A5E
:1033B000497072A808900304E0FAE82AFAE434009D
:1033C000FBEE9AEF9B405A851682851783E0C0E09A
:1033D000900309123207D0E0F005088516828517A0
:1033E00083A3E0C0E008900309123207D0E0F005A3
:1033F000089003041247C5121CDE1247BEA808122B
:103400003AF81214747402121A71900304E0250839
:10341000F50874FF650C700474FF650D60030232DB
:1034200070E508601F900308E0F5F0E508841234A9
:103430007512059EE9600990030912382D1214F8DF
:1034400079008011E509700375090A7404121AA73E
:10345000123458A909023AEE123C93E50CF0A3E5A8
:103460000DF022A3A3124A50AA0CAB0D22A3A3EA8B
:10347000F0A3EBF022900307F07C077D0385108218
:103480008511831238312274EC121ACB74FC121A93
:103490005B123F947402121AC11238271208688A0C
:1034A0000C8B0DEA450D700302355F12356FA818BD
:1034B000A919881089117810121CDE7CFF7DFF7914
:1034C0000B85088285098312382D12093A7402127D
:1034D0001A71123665700C850A82850B83123B6265
:1034E00002356C8E828F83A3A3A3A3E0F51278121A
:1034F000121CE2E4F512F5137812121CDE751207A5
:103500007513037812121CDE7810121CDE74091277
:103510001AA7121CF57409121AA7E0F9AC0CAD0D2C
:1035200085088285098312382D1209D07409121A70
:1035300071E9FE70157C077D038508828509831279
:10354000382D1205A4E97009802074166E70027E71
:103550000090030812382D1214F8EE7004800B7ED0
:1035600001850A82850B83123E81EEF9023E96EEBA
:103570002402F508E43FF5092274EC121ACB74FC1E
:10358000121A5BEAFEEBFF8C0E8D0FEE2405F50898
:10359000E43FF5097402121AC18508828509831275
:1035A000382D1208688A0C8B0DEA450D700302361F
:1035B00055EE2402F50AE43FF50BA818A919881066
:1035C00089117810121CDE7CFF7DFF790D123827DF
:1035D00012093A7402121A71123665700B8508824C
:1035E000850983123B62807A8E828F83A3A3A3A373
:1035F000E0F5127812121CE2850882850983A3A3E4
:10360000121CF57512077513037812121CDE781060
:10361000121CDE7409121AA7121CF57409121AA7DB
:10362000E0F91238231209D07409121A71E9FE70F8
:103630000F7C077D031238271205AAE97009802044
:1036400074166E70027E0090030812382D1214F862
:10365000EE7004800B7E01850882850983123E810D
:10366000EEF9023E9612386CF510A3E0F511EA452A
:10367000112274E8121ACB74FE121A5B8A168B1789
:103680008C148D15EA2405F50CE43517F50DEA24A4
:1036900002F50EE43517F50F850E82F58312382DED
:1036A00012067C8A088B09750B007C037D0079006B
:1036B0007A077B0312148C750A00E50814F51004D0
:1036C00024FFF508E50934FFF5098054900307E06D
:1036D000FA900304E0F8EA28F8E43400F9E50898E1
:1036E000E50999500D900307E0F8E510C3989003A1
:1036F00004F0E0F5127513007812121CDE1247BEBA
:10370000900308E02AFAA3E03400FB121474740258
:10371000121A71900304E0F8900307E028F0050AFC
:10372000850C82850D83A3A312413840030238081B
:10373000900307E0C39508E495094003023808AEFA
:103740000AEE2EFEE433FF123847AC18AD191247CB
:10375000D9E439FB1208688A128B13AC12AD13EC52
:103760004D701B750B01123837123E8590030812FD
:103770002D8460031214F8A90B7402023AF0851626
:1037800082851783A3A3A3A3E0F50B780B121CE299
:10379000E4F512F5137812121CDE7512047513038A
:1037A0007812121CDE900305121CF57407121AA77A
:1037B000121CF5A910850E82850F8312382D12096F
:1037C000D07409121A71E9F50B709B900308123836
:1037D0005C60030236CCE4F512F5137812121CDE9D
:1037E0007CFF7DFF790F850E82850F8312382D12A5
:1037F000093A7402121A7112386260030236CC124E
:103800003837123B660237797C077D03850E828547
:103810000F8312382D1205B0E9600302376C79006E
:10382000023779AC0CAD0D850A82850B83123831D5
:1038300022E0FAA3E0FB22123847E0FAA3E0F9EA1B
:1038400085148285158322850C82850D83E02EF8F0
:10385000A3E03FF9888289832290030512495FE83B
:10386000492212386CF8A3E0F9E84922900308EAEB
:10387000F0A3EBF0900308E02274E8121ACB74FA7C
:10388000121A5B7404121AA712346F8C168D1774F7
:1038900004121AA7E02405F50EA3E03400F50F7416
:1038A00004121AA7E02402123B0412382D12067CDF
:1038B0008A0A8B0B7F007E00A818A919880889093D
:1038C0007808121CDE850E82850F83A3A3A3A3E0D4
:1038D000F5088E097808121CDEE50E2405F508E4CB
:1038E000350FF5097808121CDE850E82850F83A33B
:1038F000A3123B341208627406121A718A0C8B0DE3
:103900008029123B25F00F123B25F00F9003041283
:103910003E70121CDE1247BEEFF8123AF812147411
:103920007402121A71900304E02FFFE50C450D702C
:10393000030239B4851882851983123FA6A3A3A375
:10394000E0F985148285158312382D120850E9FE9E
:10395000E50C2404F510E4350DF511EE70507404F7
:10396000121AA7123B2BF5087808121CE2E4F5089E
:10397000F5097808121CDE75080475090378081229
:103980001CDE900305121CF57407121AA7121CF511
:10399000E50A24FAF9AC0CAD0D8514828515831265
:1039A000382D1209D07409121A71E9FE6039123BE0
:1039B00041123E84EF7003023ADB900308E0F5F019
:1039C000EF84900307F07C077D03851482851583BF
:1039D00012382D1205B6E9600990030912382D122C
:1039E00014F87900023AEE8F08EF703BE4F512F517
:1039F000137812121CDE7CFF7DFF791185148285FD
:103A0000158312382D12093A7402121A71123B51A1
:103A10007009123B41123B65023AEE900304E02428
:103A200004900308F08035900304E0F8900308E068
:103A3000FAE82404FCE43400FDEC6A4D600302392A
:103A4000BAE50A24FAFAE50B34FFFBE50828F8E4A6
:103A50003400F9EA98EB9950030239BA851082854F
:103A60001183E0C0E0900309E02FF8A3E034008860
:103A700082F583D0E0F00F851082851183A3E0C02A
:103A8000E0123B12D0E0F00F7402121AB1880889DC
:103A9000097808121CDE7402121AA7121CF5850E92
:103AA00082850F8312346312086E7404121A718AAD
:103AB0000C8B0DEA450D70030239027402121AA72D
:103AC000E0C0E0123B12D0E0F00F7402121AA7A37C
:103AD000E0C0E0123B12D0E002390AEE70027E0A2A
:103AE000850E82850F83123B47123E84EEF97406E1
:103AF000121A717F10021B9D900309E028FAA3E0BF
:103B00003400FB22F514A3E03400F515851482F58A
:103B10008322123B1622900309E02FFAA3E034001F
:103B20008A82F58322123B1674FF22123C93A3A3D0
:103B3000A3A3E022124A50850E82850F83123831EA
:103B40002285108285118312495F8516828517832D
:103B500022900309EAF0A3EBF090030912495FE811
:103B60004922123E8AE8F0A3E9F079112274EA12A0
:103B70001ACB74FE121A5B8A088B098C128D13EA19
:103B80002405FEE43509FFAC18AD198E828F83122F
:103B9000382D1208688A0C8B0DEE2406F50EE43FD2
:103BA000F50FEA450D7003023C65E5082402F50AAD
:103BB000E43509F50B8A828B83A3A3A3E0A2E55029
:103BC0002885188285198312382D1209C48A108B12
:103BD00011EA45116020791212382385108285116F
:103BE00083121AC9E9F50C707F850E82850F83E078
:103BF000600979528011750C0E806D8508828509E7
:103C000083A3A3A3A3E0F9E4F508F5097808121C3F
:103C1000DE8E828F83A3A3E0F5087808121CDE8E67
:103C2000828F83A3A3A3121CF58E828F831247C1B8
:103C30001238271209D67406121A71E9F50C7011A0
:103C4000850E82850F83E0702D1238271205BC8007
:103C5000257416650C7011750C007418121AA712D1
:103C60003C8FE48010750C01124957851282851330
:103C700083E8F0A3E9F0850E82850F83E060047984
:103C8000008002A90C7402121A717F0E021B9D1291
:103C90003C9322E0F8A3E0F58388822274EC121AA8
:103CA000CB74F7121A5B8A0A8B0B8C108D11EA24E5
:103CB00005FEE4350BFF750C00AC18AD198E828F34
:103CC0008312382D1208688A088B09EA45097003A7
:103CD000023E5BE50A2402F50A5002050B8A828B3C
:103CE00083A3A3A3E0A2E5502F8518828519831230
:103CF000382D1209C48A0C8B0DEA450D604F7912DC
:103D0000AC08AD09123827850C82850D83121AC9BB
:103D1000E9F50C6003023E5E850A82850B83E0F5BF
:103D200008A3E0F509AA08FB1209B8EA4B70197A52
:103D3000FF7BFF1209B8EA4B7003023E518A828B67
:103D400083E508F0A3E509F07508008008750C0EFE
:103D5000023E5E0508900301E0F8E508C3984003C1
:103D6000023E5185080E750F007403780E121A4832
:103D70008A828B83A3A3E0250EF8A3E0350F1242BD
:103D80002570D08E828F83123E7912346F8E828F8F
:103D900083A3A3123E7912346DEE2404F508E43FA8
:103DA000F509850882F583E088828983A3A3A3A30C
:103DB000F0A3E4F0EE2405F50EE43FF50F850E8246
:103DC000F583123E79A3A3A3A312346D7512077570
:103DD00013007812121CDEEEFCEFFD7404121AB907
:103DE0001214747402121A71E4F5127812121CDEA5
:103DF000850882850983E0FC7D0079171238271237
:103E0000093A7402121A717407121AA712346F74E5
:103E100007121AA7E0FA4B603D85088285098312D4
:103E20003E70121CDE850E82850F831247C112146C
:103E3000747402121A717402121AC1123827120510
:103E4000C2E960267407121AA712382D1214F880DE
:103E500019750C098008750C118003750C01124945
:103E600057851082851183123E84A90C740980281D
:103E7000E0F50875090078082212383188828983B4
:103E800022123E8AE8F0A3E9F022E0F8A3E0F985E7
:103E90000E82850F83227404121A717F0C021B9DFF
:103EA00074EC121ACB123F94751000EE2402F50C3C
:103EB000E43FF50D850C82F58312382D1209B88A7E
:103EC000088B09EA45097003023F78850A82850B51
:103ED00083E064016003023F6DAC08AD09AA0AAB40
:103EE0000B1209ACE9606E8508828509831231FAEC
:103EF000EE2406F50AE43FF50B8E828F83A3A3120E
:103F00001CF58E828F83A3A3A3A3121CF5850A82BE
:103F1000850B83121CF579188E828F83123FA612AF
:103F2000382D1209D67406121A71E9F874166870E1
:103F30000B850A82850B83E4F0A38014E860128E5F
:103F4000828F8312382D850E82850F83EAF0A3EBD2
:103F5000F088108018780E121CDEAC08AD09EEFA5D
:103F6000EFFB1209B27402121A71E9F510AA08AB3C
:103F7000091209BEE510700E850C82850D8312387A
:103F80002D1205C88009741665107003751000A9FC
:103F900010023E9BEAFEEBFF8C0E8D0FEE2405F522
:103FA0000AE43FF50B22124A50850C82850D8322CC
:103FB00074EA121ACB7508007509007E007F00753F
:103FC0000A00EC2402F510E43DF5118035EC65089B
:103FD0007003ED6509600302406588828983A3A3AD
:103FE000E06A7003A3E06B707C88828983A3A3A33B
:103FF000A312495BEE28FEEF39FFEA28FAEB39FB02
:10400000050A124135503A850A0C750D0074037883
:104010000C121A48851082851183124128124225FC
:10402000601FE508450970A58C088D098882898381
:104030001231F888828983A3A3E02EFAA3E03F809F
:10404000BEE50AC3940250030241237508007509B6
:1040500000EE4F6010EEFAEFFB1214F28A0E8B0F97
:10406000EA450F70057900024125750B000240F802
:10407000850B0C750D007403780C121A488510829C
:10408000851183E0250CF50CA3E0350DF50DE50C4D
:104090002406F514E4350DF515851482F5831242D6
:1040A0002A6042E50C2404F512E4350DF51385125F
:1040B00082F583121CF5E50E2508FAE50F3509FB9C
:1040C0001214747402121A71851282851383E0250A
:1040D00008F508A3E03509F50985148285158312D2
:1040E000382D1214F8E50B600D7C087D007900AACC
:1040F0000CAB0D12148C050BE50BC3950A50030293
:10410000407085108285118312495B88828983A360
:10411000A3A3A3A3A3E50EF0A3E50F122D8BEEF04E
:10412000A3EFF07901023C8A12412C22E0250CF821
:10413000A3E0350D22900301E0F8E50AC39822744C
:10414000F0121ACB8A0E8B0F8C0A8D0B750D007531
:104150000C0080507916EE2406F508E43FF5098E30
:10416000828F83A3A3121CF58E828F83A3A3A3A3A4
:10417000121CF5850882850983121CF5850E82853F
:104180000F83A3A312382D1209D67406121A71E9EF
:10419000F50D7416650D706C850882850983E4F051
:1041A000A3F0050C900301E0F8E50CC3985066AA53
:1041B0000C8A0875090074037808121A48850A8267
:1041C000850B83A3A3124274E8FEE9FF8E828F83DE
:1041D00012422A6040EA2401F508E43400F509900F
:1041E0000301E065087002E509601488828983A3F1
:1041F000A3A3A3A3A3A3A312385C60030241547931
:1042000018024156E9609B1249577410121AA712FE
:10421000421C123E84A90D7F08021B9DE0FAA3E018
:10422000F5838A8222F988828983124A50EC4D22D2
:1042300074F6121ACB7C0080010C90035EE0F8EC5F
:10424000C398501E8C0875090074027808121A4829
:10425000124269E06A7003A3E06B70DDE8FAE9FBE3
:1042600080047A007B0002430C9002FF12427488A3
:1042700082898322E02508F8A3E03509F92274F247
:10428000121ACB8A088B09750A0080278E828F83C9
:10429000A3A3A3A3122D8260031214F87C087D004F
:1042A0007900EEFAEFFB12148C8E828F83E4F0A378
:1042B000F0050A1241355027850A0C750D0074036C
:1042C000780C121A48850882850983A3A3E0250C7F
:1042D000FEA3E0350DFF8E828F8312385C70AD85B2
:1042E000088285098374FFF0A3F0024A4474F61231
:1042F0001ACB12096A8A828B83E582458370067A1B
:10430000007B008007A3A3A3A312382D7F02021B0A
:104310009D74F4121ACB89088C828D83E06402703C
:104320003C1248FAFEA3E0F9EEF8740268700374D8
:1043300029697029750A02750B00780A121CDE744F
:1043400010121AA7121CF57410121AA7121CF5A944
:10435000081213427406121A71E9F98002790102F7
:104360002DBF74E8121ACB74FB121A5BE985188210
:10437000851983F08A168B17ECFEEDFF7510008E01
:10438000828F83A3A3A3E0A2E4502D741D121AA769
:1043900012382D1209C48A828B83E582458370030B
:1043A000024799790AEEFCEFFDAA16AB17121AC95B
:1043B000E9F510600302479C741F121AA7E0F50884
:1043C000A3E0F5097421121AA7E0F50AA3E0F50BA2
:1043D0007423121AA7E0F50EA3E0F50F8E828F83E7
:1043E000E06402600302473AA312495B85088285B4
:1043F0000983A3858212858313EE2406F50CE43F1E
:10440000F50D888289831247D9F514E439F51578BA
:1044100014121D680100002801283C4407000228EE
:10442000014503286F440029304601295B460229D3
:10443000FC45032930460429D4463A47E50E450F8A
:104440006003024735850C82850D8312495BE8FACB
:10445000E9FB8A828B83E0850A82850B831247E41D
:10446000121CDE8A828B83A3E0FCA3E00246BEE539
:104470000E450F6003024735850A82850B83740160
:10448000F01247CE850882850983F07C007D008E7E
:10449000828F83A3A3A3A3E02401FAA3E03400FB4B
:1044A000120868EA4B60408A828B83E02402F88518
:1044B0000A82850B83E028F0EA2404F8E43BF988BB
:1044C000828983E08512828513831247F21247E4C2
:1044D000121CDE8A828B83A31247C1E5082403FAEB
:1044E000E43509FB0246C3850A82850B83E0240478
:1044F000F07C047D007900AA12AB1312148C0247E1
:104500009CE50E450F60030247351247CEFEA3E03F
:10451000FF850A82850B837404F0EE850882850985
:1045200083F0EF851282851383F07403121AC1EEB3
:10453000FAEFFB1208688A0C8B0DEA450D70030236
:1045400045DF8A828B83A3A31231F87401121AB15A
:10455000880E890F780E121CDE7405121AA7121C21
:10456000F57CFF7DFF12086E7404121A718B0FEA3E
:10457000450F7033850C82850D831247C5121CDEF2
:10458000850C82850D83A3121CF57C027D007A3791
:104590007B9012066A7404121A71E9700A7401128F
:1045A0001AA774FFF0A3F08E828F83E06402703943
:1045B000750C02750D00780C121CDE8E828F83A3A1
:1045C0001247C1E5082404FAE43509FB1214747497
:1045D00002121A71850A82850B83E0240280097415
:1045E00001121AA7EEF0A3EFF07401121AA71247F6
:1045F000B37401121AA71247AA02472FE50E450FFE
:104600006003024735850C82850D83124A49AA163C
:10461000AB17121348850A82850B837402F0850854
:1046200082850983EAF0851282851383EB02473283
:10463000E50E450F60030247351247CEF8A3E0F9B7
:10464000850A82850B837402F0E8850882850983D8
:10465000F0E9851282851383024732850C82850D2D
:104660008312382D12146EEAFAF8C3950EE4950FF2
:10467000405CE8650E450F70047A00802185188241
:10468000851983E0FCE50E2CFCE4350FFDC3EC98A6
:10469000ED94005003E08005E50ECAC39AFAEA855E
:1046A0000A82850B83F08A0A750B00780A121CDED9
:1046B000850C82850D83E0250EFCA3E0350FFDAA55
:1046C00008AB091214747402121A7102479C751017
:1046D0000702479CE50E450F705B850C82850D83B4
:1046E00012495B850A82850B837407F0888289836F
:1046F0001247AB1247A3E0851282851383F0E824AA
:1047000002FAE439FB8A828B831247B38A828B8355
:104710001247AAA3A3122D8A1247B8F0E82405F87D
:10472000500109888289831247B8A31247F2A3A3D4
:10473000A3A3F0806775100B8062741D121AA71274
:10474000382D12096A8A828B83E5824583604A127A
:10475000495B880C890DE8450D603E7425121AA747
:10476000E0F5107810121CE2780E121CDE780A12A6
:104770001CDE7808121CDE7407121AA7E0F9EEFCA2
:10478000EFFDAA16AB17850C82850D83121AC9742A
:1047900007121A71E9F510800375100EA91074053F
:1047A000023AF0F088828983A322A3E085088285FB
:1047B0000983221247F9F0221247F9A3A32290039A
:1047C00005124A5022E0F50E750F00780E22850C76
:1047D00082850D83123C93E022E0FAA3E0F8E4C85E
:1047E000F9EA2822F08A828B83E0F50A750B0078BB
:1047F0000A221247A31247F922E08508828509831D
:10480000A3A32274EE121ACB74FE121A5B8A088BD1
:1048100009ECFEEDFF890AAC18AD19EEFAEFFB12B8
:1048200008688A0C8B0DEA450D70030248EB851869
:104830008285198312382D12096A8A828B83E58258
:10484000458370030248E6A3A312495B880E890FD3
:10485000E8450F70030248E67414121AA7E0F51039
:10486000A3E0F511E50AF50B780B121CE27419129E
:104870001AA7121CF57810121CDE741B121AA7E07E
:10488000F9AC0CAD0DAA08AB09850E82850F831219
:104890001AC97405121A71E9F50B705274FE650A93
:1048A000604C850C82850D83E0640270411248FAE9
:1048B000FAA3E0F9EAF87402687003742969702EAB
:1048C0008510828511831247D9F50CE439F50D78EE
:1048D0000C121CDEEEFCEFFDAA08AB091209EE7407
:1048E00002121A718008750B0E8003750B01A90B5B
:1048F0007402121A717F0A021B9DA312495F8882FB
:104900008983E02274F6121ACB74FE121A5B740CBF
:10491000121AA712495BE8851882851983F0740181
:10492000121AA7E9F0E4F508F5097808121CDE75FB
:1049300008027808121CDE7404121AB1880889096A
:104940007808121CDE79FE1209D67406121A7174E8
:1049500002121A7102430C8E828F8312495F22E089
:10496000F8A3E0F92274F7121ACBEAFEEBFF8908EC
:1049700090031C1247C1121348EA5402600BA908A5
:10498000EEFAEFFB12085C800279017F01021B9DA9
:1049900074F2121ACB74FE121A5BEAFEEBFF890A5C
:1049A0007401650A60147402650A6003024A3F7963
:1049B00001120BF8E96003024A3FEEFAEFFB12091D
:1049C000B8EA4B60031209BEA818A919880889091A
:1049D0007808121CDE7508027509007808121CDEC2
:1049E0007508237509907808121CDE7CFF7DFF7A1C
:1049F000017B001208627406121A718038850882E1
:104A0000850983A3A3A3A3A3A3124A49EEFAEFFB4C
:104A1000121330E4F50CF50D780C121CDE74021242
:104A20001AA7121CF57CFF7DFFAA08AB0912086EBD
:104A30007404121A718A088B09E508450970BE745E
:104A400002121A717F06021B9D123C93124A5022D9
:104A5000E0FCA3E0FD2274F4121ACB8A088B09EC67
:104A6000FEEDFF90170DE0F4604B7A097B00121405
:104A700098EA4B60408A828B8374B1F0A3E4124AB7
:104A8000B8F08A828B83A3A3E508F0A3E509124A54
:104A9000B8A3EEF0A3EFF0740C121AA712495B8AC8
:104AA000828B83A3A3A3A3A3A3A3123E8490170D79
:104AB000E0F91214A4022DBFF08A828B83A3A3A372
:104AC000A32274F0121ACB74FA121A5B8909ECFE55
:104AD000EDFF7508008A0A8B0B780A121D2200046C
:104AE00010E84C054B234B3D4B554B734B8B4BAE5A
:104AF0004BC64BDA4B044C7F4C904CA74CC24CE855
:104B00004CE84C1A4C740165096003024CE38E8238
:104B10008F83E0F8C394034003024CE3E89017F955
:104B2000024CBF740265096003024CE38E828F83DE
:104B300012544B9017FAE8F0A3E9024CBF740165D8
:104B4000096003024CE3124D154003024CE3E89068
:104B50000760024CBF740165096003024CE38E825A
:104B60008F83E0F8C394054003024CE3E8900761AB
:104B7000024CBF740165096003024CE3124D1540FD
:104B800003024CE3E8900762024CBF7410650960B1
:104B900003024CE3750A10750B00780A121CDE7ACA
:104BA000637B071214747402121A71024D097401A6
:104BB00065096003024CE3124D154003024CE3E823
:104BC000900773024CBF740165096003024CE38EC9
:104BD000828F83E09017FD024CBF74046509600367
:104BE000024CE38E828F83780C12191F908FEA7823
:104BF0000C1216BF5003024CE3900775780C121983
:104C00002E024D09E96003024CE3120802E9700527
:104C10001212F480559008088061740765096003DA
:104C2000024CE3750A06750B00780A121CDE8E82B0
:104C30008F83A3AC82AD837402121AB912147A74F2
:104C400002121A717C007D00AA18AB198E828F8324
:104C5000E0F91212A0E9FEC3940A4003024D0612C5
:104C60000802E9700CEEF91212FA79501215B880A8
:104C70006D74092EF582E43408F583740180407464
:104C8000016509705E124D155059E8900774802F28
:104C900074016509704D8E828F83E0F8C3940A50C9
:104CA00042E89017FC80187401650970368E828F77
:104CB00083E0F874F928C3940A5028E89017FEF0AE
:104CC000804774016509701B900807E0F88E828F99
:104CD00083E0900807F0E87030E06401702B121256
:104CE000E880267508188021C3EA9427EB940050C9
:104CF0001574026509700F8E828F83125F10120681
:104D000082E9F5088003750802A9087406121A7171
:104D10007F08021B9D8E828F83E0F8C3940222A934
:104D2000088003121A717F04021B9D74F0121ACBC3
:104D300074B1121A5B8C0A8D0B908F4C7420121A6E
:104D4000C1740612196E7420121AC11212A0E9FF62
:104D5000745F121AA7E0F509EFC3940A4003024EEC
:104D6000AD75F006EFA4F5087441121AC17A0E74FD
:104D7000202508F91215B2E97009744D121AA7E03E
:104D8000FE80027E009017F9E064027005750E0146
:104D90008003750E00740865097004742280027423
:104DA000212508F50D7C1B7D0079007426121AB9A7
:104DB00012148C7426121AC17A1BA90D1215B2E9AD
:104DC000702D7440121AA7E024F9C3940A5020E50C
:104DD0000EF50D780D121CE27427121AC1EEA2E036
:104DE000E433F9AA0AAB0B1207247401121A717C7E
:104DF000147D007900740C121AB912148C740C1200
:104E00001AC17A1074242508F91215B2E970347C9D
:104E10001079FF740C121AB91214ECE97025741C85
:104E2000121AA7AC82AD837A0474252508F91215ED
:104E3000B2740C121AC1EEA2E0E433F9AA0AAB0B69
:104E400012070CAC18AD197A0C74702FF91215B248
:104E5000E97049AA18AB191212D07F00EF75F00360
:104E6000A4F8A9F0851882851983E58228F8E583DE
:104E70001255FF1257E0601D88828983A3A3E0F5D5
:104E80000E750F00780E121CDEAA0AAB0B1209DC9D
:104E90007402121A710FEFC3940440C0EEA2E150E5
:104EA0000C90075FE0F9AA0AAB0B1209E2740465E3
:104EB0000970289017F9E064027020780090077359
:104EC000E060027801900760E060057404488001AA
:104ED000E8FEEEF9AA0AAB0B1207D87900744F026C
:104EE0004D0D74F7121ACB120802E9704F900808A2
:104EF000E0640170151212F4900808E4F07C0AFDD9
:104F0000F97A097B0812148C802A750800A80874A5
:104F10000928FEE43408FF8E828F83E06401700B61
:104F2000A9081212FA8E828F83E4F00508E508C3FF
:104F3000940A40D979501215B81212E8025918741F
:104F4000F0121ACB74F0121A5BEAFEEBFF8C088D9C
:104F500009750A0AE9600C14600914603B14607D4D
:104F60000250351212E2E9F50AC3940A40030250D6
:104F700035E50845097003025035750C06750D00BE
:104F8000780C121CDEEEFCEFFDAA08AB09121474BB
:104F90007402121A71025035750C00750E06750FE9
:104FA00000780E121CDEEEFCEFFDE50C75F00EA491
:104FB000F8A9F0748128FA740739FB121486740278
:104FC000121A71E9700B050CE50CC3940A50668047
:104FD000CA850C0AE50AC3940A505A8049750C0028
:104FE000AC18AD197A1075F006E50CA42423F9125B
:104FF00015B2E9701C7C1079FFAA18AB191214ECD9
:10500000E9700EEEFCEFFDAA18AB191206E8E96094
:105010000B050CE50CC3940A501B80C4850C0AE5F3
:105020000AC3940A500FE50845096009AA08AB09AC
:10503000A90A1212DCA90A7410024D0D74F4121A96
:10504000CB890975081574FF6A700374FF6B7027AC
:105050007E00AC097A027B00EEF91212BEE9600311
:105060007508000EEEC3940A40E8E50960537A0C17
:105070007B13120C1C804A120BEC8A0A8B0BAE0AB3
:10508000AF0BEE4F60387C007D00EE2405FAE43F64
:10509000FB8E828F83A3A3A3A3E0F91212A0E9F9E8
:1050A000C3940A500CAC097A027B001212BE750838
:1050B00000E509600CEEFAEFFB12130C8003750893
:1050C00014024D1F74F2121ACBECFEEDFF75081599
:1050D000740E121AA7E0F50AA3E0F50B74FF6A70CC
:1050E0000374FF6B7021750900AC0AAD0BEEFAEF8B
:1050F000FBA9091212C4E960037508000509E50956
:10510000C3940A503F80E2120BEC8A828B83E582C3
:105110004583602D7C007D00E5822405FAE435831B
:10512000FBA3A3A3A3E0F91212A0E9F9C3940A50C8
:1051300013AC0AAD0BEEFAEFFB1212C47508008037
:1051400003750814A9088003121A717F06021B9DBB
:10515000C082C083900779EAF0A3EBF090075FE08C
:10516000FC7D007A267B0012068290075FE0F91230
:105170000946025C3274EE121ACB74EC121A5B8A86
:10518000088B09EA240CF510E43509F5118A828BA5
:1051900083A385820C85830DEA2405F50EE4350989
:1051A000F50FEA2409F50AE43509F50BEA2403FEB4
:1051B000E43509FF8A828B83A3A3E024FA700302FB
:1051C000543924FD700302535914700302525314CE
:1051D000601024FD700302533C14700302539102CB
:1051E000543F125F166044E0F583888212544B8866
:1051F0000C890DE8450D6033851082851183E0F53B
:105200000E780E121CE2EA240BF582E43509F583D0
:10521000E0F9125F0A0A0A0AEFFB850C82850D830A
:10522000121AC97401121A7102543F850A82850B41
:1052300083121CF590077512193D12071E74021295
:105240001A71E9700302543F7901850A82850B8344
:10525000025409750A00850C82850D83E060030203
:105260005309850E82850F83E0A2E04003025309B3
:10527000900813125F1960030253097C0E7D0079B8
:1052800000AA18AB1912148C851082851183125B49
:10529000FDEA4B6010750A06750B00780A121CDED9
:1052A000EA2410801B125BF9120BECEA4B7003022C
:1052B000543F750A06750B00780A121CDEEA2405B5
:1052C000FCE43BFD7402121AB91214747402121A2F
:1052D00071850E82850F83E0A2E25004D2F0800235
:1052E000C2F0A2F0E433F8740C121AA7125D9812FF
:1052F00012D6E970117A027B0090075FE0F9121470
:10530000C87900025441750A15125F1670030254E1
:105310003F125460700302543F850C82850D83E078
:10532000FC7901125451121AC9E50A700302543F64
:10533000FC7903125BF9125BB4025434125F1670ED
:105340000302543F125460700302543F850C82855F
:105350000D83E0FC79020254317C007D00EA2404D4
:10536000FAE43509FB8E828F83E0F91212A0E9F886
:10537000C3940A400302543FE508240AFCE43509BB
:10538000FD7A0475F006E8A42425F91215AC025440
:105390003F125BF9900774E060079017FCE0F9801A
:1053A0006B9017F9E0700479058061120BEC8A0CA0
:1053B0008B0DA80CA90DE849700302543FE82404A2
:1053C000F50CE439F50D850882850983A3A3A3A311
:1053D000A3A3A3E0A2E05039850C82850D83E0F5FC
:1053E00008602E850A82850B83A3E0540270227424
:1053F0000E121AC1E82405FAE439FBA9081212A01A
:10540000E9700E79038E828F83125BFD120718807C
:105410002EAC0EAD0F850C82850D83E0F9125BF981
:10542000121318125F16601712546060127C007914
:1054300000125451121AC98006125BF912129A799D
:10544000017414121A717F0A021B9DE0F8A3E0F99F
:10545000228E828F83E0FAA3E0FB88828509832273
:10546000125BC2F98909E845092274F5121ACB7456
:10547000F2121A5BEAFE8C0A75F006E9A42420F504
:1054800008AC18AD197A0EF91215B2E970467C060F
:1054900079FFAA18AB191214ECE97038740C121ABF
:1054A000A7125BFDEAF8E50A6005EEC8488004EE45
:1054B000F4C858F8EA687001EB6015740C121AA76A
:1054C000E8F0A3E4F0AC18AD197A0EA9081215ACF7
:1054D000790180027900740E121A717F03021B9DFC
:1054E00074F2121ACB74E6121A5B890A8A088B09C5
:1054F000ECFEEDFF740C121AC17A0E75F006E9A4E9
:105500002420F91215B2E960030255C57C0679FF23
:10551000740C121AB91214ECE960030255C57470C8
:10552000250AF50BAC18AD197A0CF91215B2E96021
:10553000030255C1AA18AB191212D0E5084509702B
:105540001D7C0C7900AA18AB191214ECE970727C5E
:105550000C7D007900AA18AB1912148C8051AC187C
:10556000AD19AA08AB091212CA8A0C8B0DA80CA996
:105570000DE8497022EE4F604CAC18AD197A007BF3
:10558000001212CAEAF8EBF9EA4B60398882898383
:10559000E508F0A3E509F012563BFAEE6A7001EF58
:1055A000601FEEF04F700888828983E4F0A3F0AAB0
:1055B00018AB191212D0AC18AD197A0CA90B121530
:1055C000AC790180027900741A02514874F7121AFA
:1055D000CB7E00EE75F003A4F8A9F0EC28F8ED12EC
:1055E00055FFE06A7003A3E06B7006E8FAE9FB8000
:1055F0000B0EEEC3940440DB7A007B00025918398D
:10560000F9888289832274F7121ACB7C00EC75F03A
:1056100003A4F8A9F0EA28F8EB1255FFE0F4FEA382
:10562000E0F4FF88828983EEF0A3EFF012563BF49A
:10563000F00CECC3940440D5025918E82402F5821A
:10564000E439F583E02274F4121ACB74F4121A5B75
:10565000EAFEEBFF8C088D09900813125F19704F5A
:10566000EE4F70030257BFEC450970030257BF129B
:1056700012E2E99017FFF0C3940A4033750B007CE7
:105680000679FFE50B75F00EA4FAABF0747B2AFAED
:1056900074073BFB1214ECE96003025720050BE58D
:1056A0000BC3940A40D9750A0AE50A9017FFF090D7
:1056B00017FFE0C3940A40030257BF75F006E0A449
:1056C000FB900813125F19705CEEFCEFFD7A0E740C
:1056D000202BF91215AC7C0C7D0079FFAA18AB19B0
:1056E00012148CAC18AD197A0C9017FFE02470F9E5
:1056F0001215AC750A0E750B00780A121CDEEEFC52
:10570000EFFD9017FFE01258781214747402121A09
:1057100071900813E508F0A3E509F079000257C17C
:10572000850B0A8084E0C824061257DA60197A1BB8
:1057300074212BF91215AC1257C62406F582E438F1
:10574000F583E4F0A380D31257C6240A1257DA6017
:10575000107A1B74222BF91215AC1257C6240A803A
:10576000DB1257C6240C1257DA60107A1074232B00
:10577000F91215AC1257C6240C80C11257CF12571C
:10578000DA60307A1074242BF91215AC1257CFF569
:1057900082E438F583E02410FCA3E03400FD7A04B1
:1057A00075F0069017FFE0A42425F91215AC1257E6
:1057B000CF8089900807E0600312131E121312793C
:1057C00001740C024D23900813E0F8A3E0C8229066
:1057D0000813E0F8A3E0C8240822F582E438F58332
:1057E000125F10EC4D2274F4121ACB74F2121A5B91
:1057F000EAFEEBFFE9C3940A5004EE4F700479020D
:105800008034AC18AD197A0E75F006E9A42420F99D
:105810001215B2E9F508701C750A06750B00780AB6
:10582000121CDE7402121AC1EEFAEFFB1214747429
:1058300002121A71A908740E024D2374F4121ACBC5
:10584000EAFEEBFF750800750A06750B00780A1270
:105850001CDEEEFCEFFDE508125878121486740287
:10586000121A71E96004A908800B0508E508C394C1
:105870000A40D4790A024D2675F00EA4F8A9F074F6
:105880007B28FA740739FB2274F7121ACB750800CB
:10589000E50875F00EA4F8A9F0747B28FE740739AA
:1058A000FFEEFCEFFD7A0E75F006E508A42420F962
:1058B0001215B2E960297C067D0079FFEEFAEFFB54
:1058C00012148C7C067D0079FFEE2CFAE43FFB126B
:1058D000148CEE240CF582E43FF583E4F0A3F0058C
:1058E00008E508C3940A40A8900807E06003121373
:1058F0001E121312802274F7121ACB7E007F007CD6
:1059000006EF12587874FFF91214ECE970010E0FCB
:10591000EFC3940A40E9EEF97F01021B9D74F71270
:105920001ACB7E00EEF91212FAE9F90EEEC3940AD0
:105930005003E960EF80E174F3121ACB74CB121AB2
:105940005B89089017FFE06508701B7A017B009067
:10595000075FE0F91214CE7A027B0090075FE0F94E
:105960001214CE12132A75F006E508A4FF74202F36
:10597000FE7427121AC17A0EEEF91215B2E960030D
:10598000025A3F7C0679FF7427121AB91214ECE907
:105990006003025A3F7C0E7D0079FF7427121AB90A
:1059A00012148C7C1B7D0079FF740C121AB912142E
:1059B0008C7C0C7D0079FFAA18AB1912148C74270B
:1059C000121AC17A0EEEF91215ACE9FE740C121A15
:1059D000C17A1B74212FF91215ACE9F509740C1268
:1059E0001AC17A1B74222FF91215ACE9F50A740C4E
:1059F000121AC17A1074232FF91215ACE9F50B7441
:105A00000C121AC17A1074242FF91215ACE9F50C96
:105A1000740C121AC17A0474252FF91215ACE9FF1F
:105A2000AC18AD197A0C74702508F91215ACE9F8A8
:105A3000E509450A450B450C4F48CE4EFE80027ED7
:105A400000EEF97435121A717F05021B9D74F7126E
:105A50001ACBE990075FF01212E802591874F2129B
:105A60001ACBEAFEEBFF54807003025B1C90075FC9
:105A7000E0F91214B08A088B09EA45097003025B49
:105A8000157A01E5082405F50AE43509F50BE50862
:105A90002404F8E43509F9880C890D8508828B8384
:105AA000E02450603614600624E16058805D8882EE
:105AB0008983E070598508828B83A3A3A3A3A3A342
:105AC000A3121CF5125F0A8508828B83A3A3125BC5
:105AD000FD1212AC7402121A71803388828983E03D
:105AE000641E700F79008508828B83A3A3125BFD6F
:105AF0001212A6850C82850D83E0F9AA0AAB0B125F
:105B00000940800AAA081212B8E9FAEA6007AA084E
:105B1000AB0912149EEEFAEF6480802AEE54026004
:105B200028EE6402FE7C007D007A007B001212D613
:105B3000E960047A0180027A027B0090075FE0F955
